{"abi":[{"inputs":[{"internalType":"address","name":"_stakeToken","type":"address"}],"stateMutability":"payable","type":"constructor","name":"constructor"},{"anonymous":false,"inputs":[{"indexed":false,"internalType":"address","name":"","type":"address"},{"indexed":false,"internalType":"uint256","name":"","type":"uint256"}],"name":"Calculating","type":"event"},{"anonymous":false,"inputs":[{"indexed":false,"internalType":"bool","name":"","type":"bool"}],"name":"Claim","type":"event"},{"anonymous":false,"inputs":[{"indexed":true,"internalType":"address","name":"previousOwner","type":"address"},{"indexed":true,"internalType":"address","name":"newOwner","type":"address"}],"name":"OwnershipTransferred","type":"event"},{"anonymous":false,"inputs":[{"indexed":false,"internalType":"address","name":"","type":"address"},{"indexed":false,"internalType":"uint256","name":"","type":"uint256"}],"name":"Received","type":"event"},{"anonymous":false,"inputs":[{"indexed":false,"internalType":"string","name":"","type":"string"}],"name":"Say","type":"event"},{"inputs":[],"name":"canClaim","outputs":[{"internalType":"bool","name":"","type":"bool"}],"stateMutability":"view","type":"function"},{"inputs":[],"name":"decimals","outputs":[{"internalType":"uint256","name":"","type":"uint256"}],"stateMutability":"view","type":"function"},{"inputs":[{"internalType":"address","name":"_user","type":"address"}],"name":"getUserAmountStaked","outputs":[{"internalType":"uint256","name":"","type":"uint256"}],"stateMutability":"view","type":"function"},{"inputs":[{"internalType":"address","name":"_user","type":"address"}],"name":"getUserPreviousBalance","outputs":[{"internalType":"uint256","name":"","type":"uint256"}],"stateMutability":"view","type":"function"},{"inputs":[{"internalType":"address","name":"_user","type":"address"}],"name":"getUserSecs","outputs":[{"internalType":"uint256","name":"","type":"uint256"}],"stateMutability":"view","type":"function"},{"inputs":[{"internalType":"address","name":"_user","type":"address"}],"name":"getUserTimeGuess","outputs":[{"internalType":"uint256","name":"","type":"uint256"}],"stateMutability":"view","type":"function"},{"inputs":[],"name":"nonce","outputs":[{"internalType":"uint256","name":"","type":"uint256"}],"stateMutability":"view","type":"function"},{"inputs":[],"name":"owner","outputs":[{"internalType":"address","name":"","type":"address"}],"stateMutability":"view","type":"function"},{"inputs":[],"name":"randomNumber","outputs":[{"internalType":"uint256","name":"","type":"uint256"}],"stateMutability":"view","type":"function"},{"inputs":[],"name":"renounceOwnership","outputs":[],"stateMutability":"nonpayable","type":"function"},{"inputs":[],"name":"returnRate","outputs":[{"internalType":"uint256","name":"","type":"uint256"}],"stateMutability":"view","type":"function"},{"inputs":[],"name":"setFarmClosed","outputs":[],"stateMutability":"nonpayable","type":"function"},{"inputs":[],"name":"setFarmOpen","outputs":[],"stateMutability":"nonpayable","type":"function"},{"inputs":[{"internalType":"uint256","name":"_rate","type":"uint256"}],"name":"setReturnRate","outputs":[],"stateMutability":"nonpayable","type":"function"},{"inputs":[{"internalType":"address","name":"_team","type":"address"}],"name":"setTeam","outputs":[],"stateMutability":"nonpayable","type":"function"},{"inputs":[{"internalType":"address","name":"_user","type":"address"}],"name":"showBalance","outputs":[{"internalType":"uint256","name":"","type":"uint256"}],"stateMutability":"nonpayable","type":"function"},{"inputs":[],"name":"speculateAllowed","outputs":[{"internalType":"bool","name":"","type":"bool"}],"stateMutability":"view","type":"function"},{"inputs":[{"internalType":"uint256","name":"_amount","type":"uint256"},{"internalType":"uint256","name":"_timeGuess","type":"uint256"}],"name":"stake","outputs":[],"stateMutability":"nonpayable","type":"function"},{"inputs":[],"name":"team","outputs":[{"internalType":"address","name":"","type":"address"}],"stateMutability":"view","type":"function"},{"inputs":[],"name":"timeGap","outputs":[{"internalType":"uint256","name":"","type":"uint256"}],"stateMutability":"view","type":"function"},{"inputs":[{"internalType":"address","name":"newOwner","type":"address"}],"name":"transferOwnership","outputs":[],"stateMutability":"nonpayable","type":"function"},{"inputs":[{"internalType":"uint256","name":"_amount","type":"uint256"}],"name":"unstake","outputs":[],"stateMutability":"nonpayable","type":"function"},{"inputs":[{"internalType":"address","name":"","type":"address"}],"name":"users","outputs":[{"internalType":"uint256","name":"amountStaked","type":"uint256"},{"internalType":"uint256","name":"previousBalance","type":"uint256"},{"internalType":"uint256","name":"startDate","type":"uint256"},{"internalType":"uint256","name":"timeGuess","type":"uint256"}],"stateMutability":"view","type":"function"},{"stateMutability":"payable","type":"receive"}],"bytecode":"6080604052602160015561271060045560405162001b0b38038062001b0b8339810160408190526200003191620000c7565b6200003c3362000077565b60068054610e106003556001600160a81b0319166001600160a01b0383161790556004546200006d90600a620000f9565b6008555062000127565b600080546001600160a01b038381166001600160a01b0319831681178455604051919092169283917f8be0079c531659141344cd1fd0a4f28419497f9722a3daafe3b4186f6b6457e09190a35050565b600060208284031215620000da57600080fd5b81516001600160a01b0381168114620000f257600080fd5b9392505050565b60008160001904831182151516156200012257634e487b7160e01b600052601160045260246000fd5b500290565b6119d480620001376000396000f3fe6080604052600436106101445760003560e01c80637c2ffbb3116100b6578063a87430ba1161006f578063a87430ba146103f7578063affed0e014610459578063ca7b0c241461046f578063ccbac9f514610484578063dd5dd8f21461049a578063f2fde38b146104b057600080fd5b80637c2ffbb31461032057806385f2aef2146103365780638da5cb5b1461036e578063930ef7351461038c5780639c080f5d146103a15780639cde1d3e146103c157600080fd5b8063313ce56711610108578063313ce56714610267578063676ceb1a1461027d57806369a4a4881461029d5780636dc7a627146102d6578063715018a6146102eb5780637b0472f01461030057600080fd5b8063095cf5c61461018857806315290862146101aa5780631ec4bfab146101f65780632e17de78146102275780632f9999e71461024757600080fd5b3661018357604080513381523460208201527f88a5966d370b9919b20f3e2c13ff65706f196a4e32cc2c12bf57088f88525874910160405180910390a1005b600080fd5b34801561019457600080fd5b506101a86101a3366004611551565b6104d0565b005b3480156101b657600080fd5b506101e36101c5366004611551565b6001600160a01b031660009081526007602052604090206003015490565b6040519081526020015b60405180910390f35b34801561020257600080fd5b5060065461021790600160a01b900460ff1681565b60405190151581526020016101ed565b34801561023357600080fd5b506101a8610242366004611581565b610525565b34801561025357600080fd5b506101a8610262366004611581565b61077c565b34801561027357600080fd5b506101e360045481565b34801561028957600080fd5b506101e3610298366004611551565b6107b9565b3480156102a957600080fd5b506101e36102b8366004611551565b6001600160a01b031660009081526007602052604090206001015490565b3480156102e257600080fd5b506102176107e5565b3480156102f757600080fd5b506101a8610819565b34801561030c57600080fd5b506101a861031b36600461159a565b61084f565b34801561032c57600080fd5b506101e360085481565b34801561034257600080fd5b50600554610356906001600160a01b031681565b6040516001600160a01b0390911681526020016101ed565b34801561037a57600080fd5b506000546001600160a01b0316610356565b34801561039857600080fd5b506101a8610cc4565b3480156103ad57600080fd5b506101e36103bc366004611551565b610d54565b3480156103cd57600080fd5b506101e36103dc366004611551565b6001600160a01b031660009081526007602052604090205490565b34801561040357600080fd5b50610439610412366004611551565b60076020526000908152604090208054600182015460028301546003909301549192909184565b6040805194855260208501939093529183015260608201526080016101ed565b34801561046557600080fd5b506101e360015481565b34801561047b57600080fd5b506101a8610f5c565b34801561049057600080fd5b506101e360025481565b3480156104a657600080fd5b506101e360035481565b3480156104bc57600080fd5b506101a86104cb366004611551565b610fec565b6000546001600160a01b031633146105035760405162461bcd60e51b81526004016104fa906115bc565b60405180910390fd5b600580546001600160a01b0319166001600160a01b0392909216919091179055565b600654600160a01b900460ff1615156001146105535760405162461bcd60e51b81526004016104fa906115f1565b60035433600090815260076020526040902060020154610573904261164b565b10158061058d575033600090815260076020526040902054155b6105a95760405162461bcd60e51b81526004016104fa90611662565b600081116106125760405162461bcd60e51b815260206004820152603060248201527f416d6f756e7420746f20626520756e7374616b6564206e6565647320746f206260448201526f0652067726561746572207468616e20360841b60648201526084016104fa565b3360009081526007602090815260409182902082516080810184528154808252600183015493820193909352600282015493810193909352600301546060830152808311156106b95760405162461bcd60e51b815260206004820152602d60248201527f43616e277420756e7374616b65206d6f7265207468616e20796f75206861766560448201526c161031b432b1b59030b3b0b4b760991b60648201526084016104fa565b82826000018181516106cb919061164b565b90525081516020830152600060608301526006546040516340c10f1960e01b8152336004820152602481018590526001600160a01b03909116906340c10f1990604401600060405180830381600087803b15801561072857600080fd5b505af115801561073c573d6000803e3d6000fd5b5050336000908152600760209081526040918290208651815590860151600182015590850151600282015560609094015160039094019390935550505050565b6000546001600160a01b031633146107a65760405162461bcd60e51b81526004016104fa906115bc565b6004546107b390826116bf565b60085550565b6001600160a01b0381166000908152600760205260408120600201546107df904261164b565b92915050565b60035433600090815260076020526040812060020154909190610808904261164b565b106108135750600190565b50600090565b6000546001600160a01b031633146108435760405162461bcd60e51b81526004016104fa906115bc565b61084d6000611087565b565b600654600160a01b900460ff16151560011461087d5760405162461bcd60e51b81526004016104fa906115f1565b6003543360009081526007602052604090206002015461089d904261164b565b1015806108b7575033600090815260076020526040902054155b6108d35760405162461bcd60e51b81526004016104fa90611662565b600082118061094c57506006546040516370a0823160e01b81523360048201526000916001600160a01b0316906370a0823190602401602060405180830381865afa158015610926573d6000803e3d6000fd5b505050506040513d601f19601f8201168201806040525081019061094a91906116de565b115b6109af5760405162461bcd60e51b815260206004820152602e60248201527f416d6f756e7420746f206265207374616b6564206e6565647320746f2062652060448201526d067726561746572207468616e20360941b60648201526084016104fa565b6006546040516370a0823160e01b81523360048201526001600160a01b03909116906370a0823190602401602060405180830381865afa1580156109f7573d6000803e3d6000fd5b505050506040513d601f19601f82011682018060405250810190610a1b91906116de565b821115610a6a5760405162461bcd60e51b815260206004820152601e60248201527f43616e2774207374616b65206d6f7265207468616e20796f752068617665000060448201526064016104fa565b60018110158015610a7c5750603c8111155b610ae45760405162461bcd60e51b815260206004820152603360248201527f596f7572206775657373206e6565647320746f206265206265747765656e203160448201527220616e6420363020696e636c75736976656c7960681b60648201526084016104fa565b336000908152600760205260409020600181015490541015610b1757336000908152600760205260409020600181015490555b3360009081526007602052604081208054849290610b369084906116f7565b90915550503360009081526007602052604081206001018054849290610b5d9084906116f7565b909155505033600090815260076020526040902042600290910155610b81816110d7565b336000818152600760205260409081902092835560039092018390556006549151632770a7eb60e21b81526004810191909152602481018490526001600160a01b0390911690639dc29fac90604401600060405180830381600087803b158015610bea57600080fd5b505af1158015610bfe573d6000803e3d6000fd5b505033600090815260076020526040812060018101549054919350610c2492509061170f565b90506000811215610cbf576006546005546001600160a01b03918216916340c10f199116600a610c568560001961174e565b610c6091906117e9565b6040516001600160e01b031960e085901b1681526001600160a01b0390921660048301526024820152604401600060405180830381600087803b158015610ca657600080fd5b505af1158015610cba573d6000803e3d6000fd5b505050505b505050565b6000546001600160a01b03163314610cee5760405162461bcd60e51b81526004016104fa906115bc565b600654600160a01b900460ff161515600114610d455760405162461bcd60e51b815260206004820152601660248201527511985c9b481a5cc8185b1c9958591e4818db1bdcd95960521b60448201526064016104fa565b6006805460ff60a01b19169055565b600080603c610d62846107b9565b610d6c91906117e9565b6001600160a01b0384166000908152600760209081526040918290208251608081018452815480825260018301549382018490526002830154948201949094526003909101546060820152929350118015610dcb575080606001518210155b15610dd857519392505050565b600060148311610e86576002600454610df191906118e1565b610dfc9060646116bf565b82602001516002600454610e1091906118e1565b610e1b9060646116bf565b60106002600454610e2c91906118e1565b610e376002896118e1565b610e4191906116bf565b610e4b91906117e9565b610e5591906116f7565b610e5f91906116bf565b610e6991906117e9565b82519091508110610e7b578151610e7d565b805b95945050505050565b60288311610ed8576002600454610e9d91906118e1565b610ea89060646116bf565b82602001516002600454610ebc91906118e1565b610ec79060446116bf565b60076002600454610e2c91906118e1565b603c8311610f53576002600454610eef91906118e1565b610efa9060646116bf565b82602001516002600454610f0e91906118e1565b610f1a906101f76116bf565b600280600454610f2a91906118e1565b610f356002896118e1565b610f3f91906116bf565b610f4991906117e9565b610e55919061164b565b50519392505050565b6000546001600160a01b03163314610f865760405162461bcd60e51b81526004016104fa906115bc565b600654600160a01b900460ff1615610fd75760405162461bcd60e51b81526020600482015260146024820152732330b9369034b99030b63932b0b23c9037b832b760611b60448201526064016104fa565b6006805460ff60a01b1916600160a01b179055565b6000546001600160a01b031633146110165760405162461bcd60e51b81526004016104fa906115bc565b6001600160a01b03811661107b5760405162461bcd60e51b815260206004820152602660248201527f4f776e61626c653a206e6577206f776e657220697320746865207a65726f206160448201526564647265737360d01b60648201526084016104fa565b61108481611087565b50565b600080546001600160a01b038381166001600160a01b0319831681178455604051919092169283917f8be0079c531659141344cd1fd0a4f28419497f9722a3daafe3b4186f6b6457e09190a35050565b6000806110e3336113b7565b3360009081526007602090815260409182902082516080810184528154815260018201549281019290925260028101549282019290925260039091015460608201529091507fea6766282cac5fdd1f316b73ea49f9700412179eaa1df430a45baeb542a8c46161115c61115786603c6116bf565b611450565b60405161116991906118f0565b60405180910390a17fea6766282cac5fdd1f316b73ea49f9700412179eaa1df430a45baeb542a8c46161119b83611450565b6040516111a891906118f0565b60405180910390a18181604001516111c091906116f7565b6111cb85603c6116bf565b82604001516111da91906116f7565b1115611267577f9b4a69adafa0d7ff3fb0f324861e9813b94ff3198b2c8ce4e3373a75ea0e550933600854600454846000015161121791906116bf565b61122191906117e9565b604080516001600160a01b03909316835260208301919091520160405180910390a1600854600454825161125591906116bf565b61125f91906117e9565b949350505050565b601484116112e957600260045461127e91906118e1565b6112899060646116bf565b815160045461129a906002906118e1565b6112a59060646116bf565b601060026004546112b691906118e1565b6112c160028a6118e1565b6112cb91906116bf565b6112d591906117e9565b6112df91906116f7565b61125591906116bf565b6028841161133857600260045461130091906118e1565b61130b9060646116bf565b815160045461131c906002906118e1565b6113279060446116bf565b600760026004546112b691906118e1565b603c84116113b057600260045461134f91906118e1565b61135a9060646116bf565b815160045461136b906002906118e1565b611377906101f76116bf565b60028060045461138791906118e1565b61139260028a6118e1565b61139c91906116bf565b6113a691906117e9565b6112df919061164b565b5050919050565b60006002600160008282546113cc91906116f7565b90915550506003546000906113e390603c9061164b565b600154604080514260208201526bffffffffffffffffffffffff19606088901b169181019190915260548101919091526074016040516020818303038152906040528051906020012060001c6114399190611945565b61144490603d6116f7565b60028190559392505050565b6060816000036114775750506040805180820190915260018152600360fc1b602082015290565b8160005b81156114a1578061148b81611959565b915061149a9050600a836117e9565b915061147b565b60008167ffffffffffffffff8111156114bc576114bc611972565b6040519080825280601f01601f1916602001820160405280156114e6576020820181803683370190505b5090505b8415610e7b576114fb60018361164b565b9150611508600a86611945565b6115139060306116f7565b60f81b81838151811061152857611528611988565b60200101906001600160f81b031916908160001a90535061154a600a866117e9565b94506114ea565b60006020828403121561156357600080fd5b81356001600160a01b038116811461157a57600080fd5b9392505050565b60006020828403121561159357600080fd5b5035919050565b600080604083850312156115ad57600080fd5b50508035926020909101359150565b6020808252818101527f4f776e61626c653a2063616c6c6572206973206e6f7420746865206f776e6572604082015260600190565b60208082526024908201527f5374616b696e67206973206e6f7420616c6c6f77656420617420746865206d6f6040820152631b595b9d60e21b606082015260800190565b634e487b7160e01b600052601160045260246000fd5b60008282101561165d5761165d611635565b500390565b6020808252603c908201527f596f75206861766520746f2077616974206c6f6e67657220746f20626520616260408201527f6c6520746f20436c61696d2f5265696e766573742f556e7374616b6500000000606082015260800190565b60008160001904831182151516156116d9576116d9611635565b500290565b6000602082840312156116f057600080fd5b5051919050565b6000821982111561170a5761170a611635565b500190565b60008083128015600160ff1b85018412161561172d5761172d611635565b6001600160ff1b038401831381161561174857611748611635565b50500390565b60006001600160ff1b038184138284138082168684048611161561177457611774611635565b600160ff1b600087128281168783058912161561179357611793611635565b600087129250878205871284841616156117af576117af611635565b878505871281841616156117c5576117c5611635565b505050929093029392505050565b634e487b7160e01b600052601260045260246000fd5b6000826117f8576117f86117d3565b500490565b600181815b8085111561183857816000190482111561181e5761181e611635565b8085161561182b57918102915b93841c9390800290611802565b509250929050565b60008261184f575060016107df565b8161185c575060006107df565b8160018114611872576002811461187c57611898565b60019150506107df565b60ff84111561188d5761188d611635565b50506001821b6107df565b5060208310610133831016604e8410600b84101617156118bb575081810a6107df565b6118c583836117fd565b80600019048211156118d9576118d9611635565b029392505050565b600061157a60ff841683611840565b600060208083528351808285015260005b8181101561191d57858101830151858201604001528201611901565b8181111561192f576000604083870101525b50601f01601f1916929092016040019392505050565b600082611954576119546117d3565b500690565b60006001820161196b5761196b611635565b5060010190565b634e487b7160e01b600052604160045260246000fd5b634e487b7160e01b600052603260045260246000fdfea2646970667358221220e5ca95b965b5a695adca029fe0e5281134fa7e2c8cc06a7a31977a1d5258f86064736f6c634300080d0033","bytecodeSha1":"d6252888405621a8231e43675154a9779bfa9a4a","compiler":{"evm_version":"istanbul","optimizer":{"enabled":true,"runs":200},"version":"0.8.13+commit.abaa5c0e"},"contractName":"SpeculateFarm","language":"Solidity","natspec":{"kind":"dev","methods":{"owner()":{"details":"Returns the address of the current owner."},"renounceOwnership()":{"details":"Leaves the contract without owner. It will not be possible to call `onlyOwner` functions anymore. Can only be called by the current owner. NOTE: Renouncing ownership will leave the contract without an owner, thereby removing any functionality that is only available to the owner."},"transferOwnership(address)":{"details":"Transfers ownership of the contract to a new account (`newOwner`). Can only be called by the current owner."}},"version":1},"opcodes":"PUSH1 0x80 PUSH1 0x40 MSTORE PUSH1 0x4 CALLDATASIZE LT PUSH2 0x144 JUMPI PUSH1 0x0 CALLDATALOAD PUSH1 0xE0 SHR DUP1 PUSH4 0x7C2FFBB3 GT PUSH2 0xB6 JUMPI DUP1 PUSH4 0xA87430BA GT PUSH2 0x6F JUMPI DUP1 PUSH4 0xA87430BA EQ PUSH2 0x3F7 JUMPI DUP1 PUSH4 0xAFFED0E0 EQ PUSH2 0x459 JUMPI DUP1 PUSH4 0xCA7B0C24 EQ PUSH2 0x46F JUMPI DUP1 PUSH4 0xCCBAC9F5 EQ PUSH2 0x484 JUMPI DUP1 PUSH4 0xDD5DD8F2 EQ PUSH2 0x49A JUMPI DUP1 PUSH4 0xF2FDE38B EQ PUSH2 0x4B0 JUMPI PUSH1 0x0 DUP1 REVERT JUMPDEST DUP1 PUSH4 0x7C2FFBB3 EQ PUSH2 0x320 JUMPI DUP1 PUSH4 0x85F2AEF2 EQ PUSH2 0x336 JUMPI DUP1 PUSH4 0x8DA5CB5B EQ PUSH2 0x36E JUMPI DUP1 PUSH4 0x930EF735 EQ PUSH2 0x38C JUMPI DUP1 PUSH4 0x9C080F5D EQ PUSH2 0x3A1 JUMPI DUP1 PUSH4 0x9CDE1D3E EQ PUSH2 0x3C1 JUMPI PUSH1 0x0 DUP1 REVERT JUMPDEST DUP1 PUSH4 0x313CE567 GT PUSH2 0x108 JUMPI DUP1 PUSH4 0x313CE567 EQ PUSH2 0x267 JUMPI DUP1 PUSH4 0x676CEB1A EQ PUSH2 0x27D JUMPI DUP1 PUSH4 0x69A4A488 EQ PUSH2 0x29D JUMPI DUP1 PUSH4 0x6DC7A627 EQ PUSH2 0x2D6 JUMPI DUP1 PUSH4 0x715018A6 EQ PUSH2 0x2EB JUMPI DUP1 PUSH4 0x7B0472F0 EQ PUSH2 0x300 JUMPI PUSH1 0x0 DUP1 REVERT JUMPDEST DUP1 PUSH4 0x95CF5C6 EQ PUSH2 0x188 JUMPI DUP1 PUSH4 0x15290862 EQ PUSH2 0x1AA JUMPI DUP1 PUSH4 0x1EC4BFAB EQ PUSH2 0x1F6 JUMPI DUP1 PUSH4 0x2E17DE78 EQ PUSH2 0x227 JUMPI DUP1 PUSH4 0x2F9999E7 EQ PUSH2 0x247 JUMPI PUSH1 0x0 DUP1 REVERT JUMPDEST CALLDATASIZE PUSH2 0x183 JUMPI PUSH1 0x40 DUP1 MLOAD CALLER DUP2 MSTORE CALLVALUE PUSH1 0x20 DUP3 ADD MSTORE PUSH32 0x88A5966D370B9919B20F3E2C13FF65706F196A4E32CC2C12BF57088F88525874 SWAP2 ADD PUSH1 0x40 MLOAD DUP1 SWAP2 SUB SWAP1 LOG1 STOP JUMPDEST PUSH1 0x0 DUP1 REVERT JUMPDEST CALLVALUE DUP1 ISZERO PUSH2 0x194 JUMPI PUSH1 0x0 DUP1 REVERT JUMPDEST POP PUSH2 0x1A8 PUSH2 0x1A3 CALLDATASIZE PUSH1 0x4 PUSH2 0x1551 JUMP JUMPDEST PUSH2 0x4D0 JUMP JUMPDEST STOP JUMPDEST CALLVALUE DUP1 ISZERO PUSH2 0x1B6 JUMPI PUSH1 0x0 DUP1 REVERT JUMPDEST POP PUSH2 0x1E3 PUSH2 0x1C5 CALLDATASIZE PUSH1 0x4 PUSH2 0x1551 JUMP JUMPDEST PUSH1 0x1 PUSH1 0x1 PUSH1 0xA0 SHL SUB AND PUSH1 0x0 SWAP1 DUP2 MSTORE PUSH1 0x7 PUSH1 0x20 MSTORE PUSH1 0x40 SWAP1 KECCAK256 PUSH1 0x3 ADD SLOAD SWAP1 JUMP JUMPDEST PUSH1 0x40 MLOAD SWAP1 DUP2 MSTORE PUSH1 0x20 ADD JUMPDEST PUSH1 0x40 MLOAD DUP1 SWAP2 SUB SWAP1 RETURN JUMPDEST CALLVALUE DUP1 ISZERO PUSH2 0x202 JUMPI PUSH1 0x0 DUP1 REVERT JUMPDEST POP PUSH1 0x6 SLOAD PUSH2 0x217 SWAP1 PUSH1 0x1 PUSH1 0xA0 SHL SWAP1 DIV PUSH1 0xFF AND DUP2 JUMP JUMPDEST PUSH1 0x40 MLOAD SWAP1 ISZERO ISZERO DUP2 MSTORE PUSH1 0x20 ADD PUSH2 0x1ED JUMP JUMPDEST CALLVALUE DUP1 ISZERO PUSH2 0x233 JUMPI PUSH1 0x0 DUP1 REVERT JUMPDEST POP PUSH2 0x1A8 PUSH2 0x242 CALLDATASIZE PUSH1 0x4 PUSH2 0x1581 JUMP JUMPDEST PUSH2 0x525 JUMP JUMPDEST CALLVALUE DUP1 ISZERO PUSH2 0x253 JUMPI PUSH1 0x0 DUP1 REVERT JUMPDEST POP PUSH2 0x1A8 PUSH2 0x262 CALLDATASIZE PUSH1 0x4 PUSH2 0x1581 JUMP JUMPDEST PUSH2 0x77C JUMP JUMPDEST CALLVALUE DUP1 ISZERO PUSH2 0x273 JUMPI PUSH1 0x0 DUP1 REVERT JUMPDEST POP PUSH2 0x1E3 PUSH1 0x4 SLOAD DUP2 JUMP JUMPDEST CALLVALUE DUP1 ISZERO PUSH2 0x289 JUMPI PUSH1 0x0 DUP1 REVERT JUMPDEST POP PUSH2 0x1E3 PUSH2 0x298 CALLDATASIZE PUSH1 0x4 PUSH2 0x1551 JUMP JUMPDEST PUSH2 0x7B9 JUMP JUMPDEST CALLVALUE DUP1 ISZERO PUSH2 0x2A9 JUMPI PUSH1 0x0 DUP1 REVERT JUMPDEST POP PUSH2 0x1E3 PUSH2 0x2B8 CALLDATASIZE PUSH1 0x4 PUSH2 0x1551 JUMP JUMPDEST PUSH1 0x1 PUSH1 0x1 PUSH1 0xA0 SHL SUB AND PUSH1 0x0 SWAP1 DUP2 MSTORE PUSH1 0x7 PUSH1 0x20 MSTORE PUSH1 0x40 SWAP1 KECCAK256 PUSH1 0x1 ADD SLOAD SWAP1 JUMP JUMPDEST CALLVALUE DUP1 ISZERO PUSH2 0x2E2 JUMPI PUSH1 0x0 DUP1 REVERT JUMPDEST POP PUSH2 0x217 PUSH2 0x7E5 JUMP JUMPDEST CALLVALUE DUP1 ISZERO PUSH2 0x2F7 JUMPI PUSH1 0x0 DUP1 REVERT JUMPDEST POP PUSH2 0x1A8 PUSH2 0x819 JUMP JUMPDEST CALLVALUE DUP1 ISZERO PUSH2 0x30C JUMPI PUSH1 0x0 DUP1 REVERT JUMPDEST POP PUSH2 0x1A8 PUSH2 0x31B CALLDATASIZE PUSH1 0x4 PUSH2 0x159A JUMP JUMPDEST PUSH2 0x84F JUMP JUMPDEST CALLVALUE DUP1 ISZERO PUSH2 0x32C JUMPI PUSH1 0x0 DUP1 REVERT JUMPDEST POP PUSH2 0x1E3 PUSH1 0x8 SLOAD DUP2 JUMP JUMPDEST CALLVALUE DUP1 ISZERO PUSH2 0x342 JUMPI PUSH1 0x0 DUP1 REVERT JUMPDEST POP PUSH1 0x5 SLOAD PUSH2 0x356 SWAP1 PUSH1 0x1 PUSH1 0x1 PUSH1 0xA0 SHL SUB AND DUP2 JUMP JUMPDEST PUSH1 0x40 MLOAD PUSH1 0x1 PUSH1 0x1 PUSH1 0xA0 SHL SUB SWAP1 SWAP2 AND DUP2 MSTORE PUSH1 0x20 ADD PUSH2 0x1ED JUMP JUMPDEST CALLVALUE DUP1 ISZERO PUSH2 0x37A JUMPI PUSH1 0x0 DUP1 REVERT JUMPDEST POP PUSH1 0x0 SLOAD PUSH1 0x1 PUSH1 0x1 PUSH1 0xA0 SHL SUB AND PUSH2 0x356 JUMP JUMPDEST CALLVALUE DUP1 ISZERO PUSH2 0x398 JUMPI PUSH1 0x0 DUP1 REVERT JUMPDEST POP PUSH2 0x1A8 PUSH2 0xCC4 JUMP JUMPDEST CALLVALUE DUP1 ISZERO PUSH2 0x3AD JUMPI PUSH1 0x0 DUP1 REVERT JUMPDEST POP PUSH2 0x1E3 PUSH2 0x3BC CALLDATASIZE PUSH1 0x4 PUSH2 0x1551 JUMP JUMPDEST PUSH2 0xD54 JUMP JUMPDEST CALLVALUE DUP1 ISZERO PUSH2 0x3CD JUMPI PUSH1 0x0 DUP1 REVERT JUMPDEST POP PUSH2 0x1E3 PUSH2 0x3DC CALLDATASIZE PUSH1 0x4 PUSH2 0x1551 JUMP JUMPDEST PUSH1 0x1 PUSH1 0x1 PUSH1 0xA0 SHL SUB AND PUSH1 0x0 SWAP1 DUP2 MSTORE PUSH1 0x7 PUSH1 0x20 MSTORE PUSH1 0x40 SWAP1 KECCAK256 SLOAD SWAP1 JUMP JUMPDEST CALLVALUE DUP1 ISZERO PUSH2 0x403 JUMPI PUSH1 0x0 DUP1 REVERT JUMPDEST POP PUSH2 0x439 PUSH2 0x412 CALLDATASIZE PUSH1 0x4 PUSH2 0x1551 JUMP JUMPDEST PUSH1 0x7 PUSH1 0x20 MSTORE PUSH1 0x0 SWAP1 DUP2 MSTORE PUSH1 0x40 SWAP1 KECCAK256 DUP1 SLOAD PUSH1 0x1 DUP3 ADD SLOAD PUSH1 0x2 DUP4 ADD SLOAD PUSH1 0x3 SWAP1 SWAP4 ADD SLOAD SWAP2 SWAP3 SWAP1 SWAP2 DUP5 JUMP JUMPDEST PUSH1 0x40 DUP1 MLOAD SWAP5 DUP6 MSTORE PUSH1 0x20 DUP6 ADD SWAP4 SWAP1 SWAP4 MSTORE SWAP2 DUP4 ADD MSTORE PUSH1 0x60 DUP3 ADD MSTORE PUSH1 0x80 ADD PUSH2 0x1ED JUMP JUMPDEST CALLVALUE DUP1 ISZERO PUSH2 0x465 JUMPI PUSH1 0x0 DUP1 REVERT JUMPDEST POP PUSH2 0x1E3 PUSH1 0x1 SLOAD DUP2 JUMP JUMPDEST CALLVALUE DUP1 ISZERO PUSH2 0x47B JUMPI PUSH1 0x0 DUP1 REVERT JUMPDEST POP PUSH2 0x1A8 PUSH2 0xF5C JUMP JUMPDEST CALLVALUE DUP1 ISZERO PUSH2 0x490 JUMPI PUSH1 0x0 DUP1 REVERT JUMPDEST POP PUSH2 0x1E3 PUSH1 0x2 SLOAD DUP2 JUMP JUMPDEST CALLVALUE DUP1 ISZERO PUSH2 0x4A6 JUMPI PUSH1 0x0 DUP1 REVERT JUMPDEST POP PUSH2 0x1E3 PUSH1 0x3 SLOAD DUP2 JUMP JUMPDEST CALLVALUE DUP1 ISZERO PUSH2 0x4BC JUMPI PUSH1 0x0 DUP1 REVERT JUMPDEST POP PUSH2 0x1A8 PUSH2 0x4CB CALLDATASIZE PUSH1 0x4 PUSH2 0x1551 JUMP JUMPDEST PUSH2 0xFEC JUMP JUMPDEST PUSH1 0x0 SLOAD PUSH1 0x1 PUSH1 0x1 PUSH1 0xA0 SHL SUB AND CALLER EQ PUSH2 0x503 JUMPI PUSH1 0x40 MLOAD PUSH3 0x461BCD PUSH1 0xE5 SHL DUP2 MSTORE PUSH1 0x4 ADD PUSH2 0x4FA SWAP1 PUSH2 0x15BC JUMP JUMPDEST PUSH1 0x40 MLOAD DUP1 SWAP2 SUB SWAP1 REVERT JUMPDEST PUSH1 0x5 DUP1 SLOAD PUSH1 0x1 PUSH1 0x1 PUSH1 0xA0 SHL SUB NOT AND PUSH1 0x1 PUSH1 0x1 PUSH1 0xA0 SHL SUB SWAP3 SWAP1 SWAP3 AND SWAP2 SWAP1 SWAP2 OR SWAP1 SSTORE JUMP JUMPDEST PUSH1 0x6 SLOAD PUSH1 0x1 PUSH1 0xA0 SHL SWAP1 DIV PUSH1 0xFF AND ISZERO ISZERO PUSH1 0x1 EQ PUSH2 0x553 JUMPI PUSH1 0x40 MLOAD PUSH3 0x461BCD PUSH1 0xE5 SHL DUP2 MSTORE PUSH1 0x4 ADD PUSH2 0x4FA SWAP1 PUSH2 0x15F1 JUMP JUMPDEST PUSH1 0x3 SLOAD CALLER PUSH1 0x0 SWAP1 DUP2 MSTORE PUSH1 0x7 PUSH1 0x20 MSTORE PUSH1 0x40 SWAP1 KECCAK256 PUSH1 0x2 ADD SLOAD PUSH2 0x573 SWAP1 TIMESTAMP PUSH2 0x164B JUMP JUMPDEST LT ISZERO DUP1 PUSH2 0x58D JUMPI POP CALLER PUSH1 0x0 SWAP1 DUP2 MSTORE PUSH1 0x7 PUSH1 0x20 MSTORE PUSH1 0x40 SWAP1 KECCAK256 SLOAD ISZERO JUMPDEST PUSH2 0x5A9 JUMPI PUSH1 0x40 MLOAD PUSH3 0x461BCD PUSH1 0xE5 SHL DUP2 MSTORE PUSH1 0x4 ADD PUSH2 0x4FA SWAP1 PUSH2 0x1662 JUMP JUMPDEST PUSH1 0x0 DUP2 GT PUSH2 0x612 JUMPI PUSH1 0x40 MLOAD PUSH3 0x461BCD PUSH1 0xE5 SHL DUP2 MSTORE PUSH1 0x20 PUSH1 0x4 DUP3 ADD MSTORE PUSH1 0x30 PUSH1 0x24 DUP3 ADD MSTORE PUSH32 0x416D6F756E7420746F20626520756E7374616B6564206E6565647320746F2062 PUSH1 0x44 DUP3 ADD MSTORE PUSH16 0x652067726561746572207468616E203 PUSH1 0x84 SHL PUSH1 0x64 DUP3 ADD MSTORE PUSH1 0x84 ADD PUSH2 0x4FA JUMP JUMPDEST CALLER PUSH1 0x0 SWAP1 DUP2 MSTORE PUSH1 0x7 PUSH1 0x20 SWAP1 DUP2 MSTORE PUSH1 0x40 SWAP2 DUP3 SWAP1 KECCAK256 DUP3 MLOAD PUSH1 0x80 DUP2 ADD DUP5 MSTORE DUP2 SLOAD DUP1 DUP3 MSTORE PUSH1 0x1 DUP4 ADD SLOAD SWAP4 DUP3 ADD SWAP4 SWAP1 SWAP4 MSTORE PUSH1 0x2 DUP3 ADD SLOAD SWAP4 DUP2 ADD SWAP4 SWAP1 SWAP4 MSTORE PUSH1 0x3 ADD SLOAD PUSH1 0x60 DUP4 ADD MSTORE DUP1 DUP4 GT ISZERO PUSH2 0x6B9 JUMPI PUSH1 0x40 MLOAD PUSH3 0x461BCD PUSH1 0xE5 SHL DUP2 MSTORE PUSH1 0x20 PUSH1 0x4 DUP3 ADD MSTORE PUSH1 0x2D PUSH1 0x24 DUP3 ADD MSTORE PUSH32 0x43616E277420756E7374616B65206D6F7265207468616E20796F752068617665 PUSH1 0x44 DUP3 ADD MSTORE PUSH13 0x161031B432B1B59030B3B0B4B7 PUSH1 0x99 SHL PUSH1 0x64 DUP3 ADD MSTORE PUSH1 0x84 ADD PUSH2 0x4FA JUMP JUMPDEST DUP3 DUP3 PUSH1 0x0 ADD DUP2 DUP2 MLOAD PUSH2 0x6CB SWAP2 SWAP1 PUSH2 0x164B JUMP JUMPDEST SWAP1 MSTORE POP DUP2 MLOAD PUSH1 0x20 DUP4 ADD MSTORE PUSH1 0x0 PUSH1 0x60 DUP4 ADD MSTORE PUSH1 0x6 SLOAD PUSH1 0x40 MLOAD PUSH4 0x40C10F19 PUSH1 0xE0 SHL DUP2 MSTORE CALLER PUSH1 0x4 DUP3 ADD MSTORE PUSH1 0x24 DUP2 ADD DUP6 SWAP1 MSTORE PUSH1 0x1 PUSH1 0x1 PUSH1 0xA0 SHL SUB SWAP1 SWAP2 AND SWAP1 PUSH4 0x40C10F19 SWAP1 PUSH1 0x44 ADD PUSH1 0x0 PUSH1 0x40 MLOAD DUP1 DUP4 SUB DUP2 PUSH1 0x0 DUP8 DUP1 EXTCODESIZE ISZERO DUP1 ISZERO PUSH2 0x728 JUMPI PUSH1 0x0 DUP1 REVERT JUMPDEST POP GAS CALL ISZERO DUP1 ISZERO PUSH2 0x73C JUMPI RETURNDATASIZE PUSH1 0x0 DUP1 RETURNDATACOPY RETURNDATASIZE PUSH1 0x0 REVERT JUMPDEST POP POP CALLER PUSH1 0x0 SWAP1 DUP2 MSTORE PUSH1 0x7 PUSH1 0x20 SWAP1 DUP2 MSTORE PUSH1 0x40 SWAP2 DUP3 SWAP1 KECCAK256 DUP7 MLOAD DUP2 SSTORE SWAP1 DUP7 ADD MLOAD PUSH1 0x1 DUP3 ADD SSTORE SWAP1 DUP6 ADD MLOAD PUSH1 0x2 DUP3 ADD SSTORE PUSH1 0x60 SWAP1 SWAP5 ADD MLOAD PUSH1 0x3 SWAP1 SWAP5 ADD SWAP4 SWAP1 SWAP4 SSTORE POP POP POP POP JUMP JUMPDEST PUSH1 0x0 SLOAD PUSH1 0x1 PUSH1 0x1 PUSH1 0xA0 SHL SUB AND CALLER EQ PUSH2 0x7A6 JUMPI PUSH1 0x40 MLOAD PUSH3 0x461BCD PUSH1 0xE5 SHL DUP2 MSTORE PUSH1 0x4 ADD PUSH2 0x4FA SWAP1 PUSH2 0x15BC JUMP JUMPDEST PUSH1 0x4 SLOAD PUSH2 0x7B3 SWAP1 DUP3 PUSH2 0x16BF JUMP JUMPDEST PUSH1 0x8 SSTORE POP JUMP JUMPDEST PUSH1 0x1 PUSH1 0x1 PUSH1 0xA0 SHL SUB DUP2 AND PUSH1 0x0 SWAP1 DUP2 MSTORE PUSH1 0x7 PUSH1 0x20 MSTORE PUSH1 0x40 DUP2 KECCAK256 PUSH1 0x2 ADD SLOAD PUSH2 0x7DF SWAP1 TIMESTAMP PUSH2 0x164B JUMP JUMPDEST SWAP3 SWAP2 POP POP JUMP JUMPDEST PUSH1 0x3 SLOAD CALLER PUSH1 0x0 SWAP1 DUP2 MSTORE PUSH1 0x7 PUSH1 0x20 MSTORE PUSH1 0x40 DUP2 KECCAK256 PUSH1 0x2 ADD SLOAD SWAP1 SWAP2 SWAP1 PUSH2 0x808 SWAP1 TIMESTAMP PUSH2 0x164B JUMP JUMPDEST LT PUSH2 0x813 JUMPI POP PUSH1 0x1 SWAP1 JUMP JUMPDEST POP PUSH1 0x0 SWAP1 JUMP JUMPDEST PUSH1 0x0 SLOAD PUSH1 0x1 PUSH1 0x1 PUSH1 0xA0 SHL SUB AND CALLER EQ PUSH2 0x843 JUMPI PUSH1 0x40 MLOAD PUSH3 0x461BCD PUSH1 0xE5 SHL DUP2 MSTORE PUSH1 0x4 ADD PUSH2 0x4FA SWAP1 PUSH2 0x15BC JUMP JUMPDEST PUSH2 0x84D PUSH1 0x0 PUSH2 0x1087 JUMP JUMPDEST JUMP JUMPDEST PUSH1 0x6 SLOAD PUSH1 0x1 PUSH1 0xA0 SHL SWAP1 DIV PUSH1 0xFF AND ISZERO ISZERO PUSH1 0x1 EQ PUSH2 0x87D JUMPI PUSH1 0x40 MLOAD PUSH3 0x461BCD PUSH1 0xE5 SHL DUP2 MSTORE PUSH1 0x4 ADD PUSH2 0x4FA SWAP1 PUSH2 0x15F1 JUMP JUMPDEST PUSH1 0x3 SLOAD CALLER PUSH1 0x0 SWAP1 DUP2 MSTORE PUSH1 0x7 PUSH1 0x20 MSTORE PUSH1 0x40 SWAP1 KECCAK256 PUSH1 0x2 ADD SLOAD PUSH2 0x89D SWAP1 TIMESTAMP PUSH2 0x164B JUMP JUMPDEST LT ISZERO DUP1 PUSH2 0x8B7 JUMPI POP CALLER PUSH1 0x0 SWAP1 DUP2 MSTORE PUSH1 0x7 PUSH1 0x20 MSTORE PUSH1 0x40 SWAP1 KECCAK256 SLOAD ISZERO JUMPDEST PUSH2 0x8D3 JUMPI PUSH1 0x40 MLOAD PUSH3 0x461BCD PUSH1 0xE5 SHL DUP2 MSTORE PUSH1 0x4 ADD PUSH2 0x4FA SWAP1 PUSH2 0x1662 JUMP JUMPDEST PUSH1 0x0 DUP3 GT DUP1 PUSH2 0x94C JUMPI POP PUSH1 0x6 SLOAD PUSH1 0x40 MLOAD PUSH4 0x70A08231 PUSH1 0xE0 SHL DUP2 MSTORE CALLER PUSH1 0x4 DUP3 ADD MSTORE PUSH1 0x0 SWAP2 PUSH1 0x1 PUSH1 0x1 PUSH1 0xA0 SHL SUB AND SWAP1 PUSH4 0x70A08231 SWAP1 PUSH1 0x24 ADD PUSH1 0x20 PUSH1 0x40 MLOAD DUP1 DUP4 SUB DUP2 DUP7 GAS STATICCALL ISZERO DUP1 ISZERO PUSH2 0x926 JUMPI RETURNDATASIZE PUSH1 0x0 DUP1 RETURNDATACOPY RETURNDATASIZE PUSH1 0x0 REVERT JUMPDEST POP POP POP POP PUSH1 0x40 MLOAD RETURNDATASIZE PUSH1 0x1F NOT PUSH1 0x1F DUP3 ADD AND DUP3 ADD DUP1 PUSH1 0x40 MSTORE POP DUP2 ADD SWAP1 PUSH2 0x94A SWAP2 SWAP1 PUSH2 0x16DE JUMP JUMPDEST GT JUMPDEST PUSH2 0x9AF JUMPI PUSH1 0x40 MLOAD PUSH3 0x461BCD PUSH1 0xE5 SHL DUP2 MSTORE PUSH1 0x20 PUSH1 0x4 DUP3 ADD MSTORE PUSH1 0x2E PUSH1 0x24 DUP3 ADD MSTORE PUSH32 0x416D6F756E7420746F206265207374616B6564206E6565647320746F20626520 PUSH1 0x44 DUP3 ADD MSTORE PUSH14 0x67726561746572207468616E203 PUSH1 0x94 SHL PUSH1 0x64 DUP3 ADD MSTORE PUSH1 0x84 ADD PUSH2 0x4FA JUMP JUMPDEST PUSH1 0x6 SLOAD PUSH1 0x40 MLOAD PUSH4 0x70A08231 PUSH1 0xE0 SHL DUP2 MSTORE CALLER PUSH1 0x4 DUP3 ADD MSTORE PUSH1 0x1 PUSH1 0x1 PUSH1 0xA0 SHL SUB SWAP1 SWAP2 AND SWAP1 PUSH4 0x70A08231 SWAP1 PUSH1 0x24 ADD PUSH1 0x20 PUSH1 0x40 MLOAD DUP1 DUP4 SUB DUP2 DUP7 GAS STATICCALL ISZERO DUP1 ISZERO PUSH2 0x9F7 JUMPI RETURNDATASIZE PUSH1 0x0 DUP1 RETURNDATACOPY RETURNDATASIZE PUSH1 0x0 REVERT JUMPDEST POP POP POP POP PUSH1 0x40 MLOAD RETURNDATASIZE PUSH1 0x1F NOT PUSH1 0x1F DUP3 ADD AND DUP3 ADD DUP1 PUSH1 0x40 MSTORE POP DUP2 ADD SWAP1 PUSH2 0xA1B SWAP2 SWAP1 PUSH2 0x16DE JUMP JUMPDEST DUP3 GT ISZERO PUSH2 0xA6A JUMPI PUSH1 0x40 MLOAD PUSH3 0x461BCD PUSH1 0xE5 SHL DUP2 MSTORE PUSH1 0x20 PUSH1 0x4 DUP3 ADD MSTORE PUSH1 0x1E PUSH1 0x24 DUP3 ADD MSTORE PUSH32 0x43616E2774207374616B65206D6F7265207468616E20796F7520686176650000 PUSH1 0x44 DUP3 ADD MSTORE PUSH1 0x64 ADD PUSH2 0x4FA JUMP JUMPDEST PUSH1 0x1 DUP2 LT ISZERO DUP1 ISZERO PUSH2 0xA7C JUMPI POP PUSH1 0x3C DUP2 GT ISZERO JUMPDEST PUSH2 0xAE4 JUMPI PUSH1 0x40 MLOAD PUSH3 0x461BCD PUSH1 0xE5 SHL DUP2 MSTORE PUSH1 0x20 PUSH1 0x4 DUP3 ADD MSTORE PUSH1 0x33 PUSH1 0x24 DUP3 ADD MSTORE PUSH32 0x596F7572206775657373206E6565647320746F206265206265747765656E2031 PUSH1 0x44 DUP3 ADD MSTORE PUSH19 0x20616E6420363020696E636C75736976656C79 PUSH1 0x68 SHL PUSH1 0x64 DUP3 ADD MSTORE PUSH1 0x84 ADD PUSH2 0x4FA JUMP JUMPDEST CALLER PUSH1 0x0 SWAP1 DUP2 MSTORE PUSH1 0x7 PUSH1 0x20 MSTORE PUSH1 0x40 SWAP1 KECCAK256 PUSH1 0x1 DUP2 ADD SLOAD SWAP1 SLOAD LT ISZERO PUSH2 0xB17 JUMPI CALLER PUSH1 0x0 SWAP1 DUP2 MSTORE PUSH1 0x7 PUSH1 0x20 MSTORE PUSH1 0x40 SWAP1 KECCAK256 PUSH1 0x1 DUP2 ADD SLOAD SWAP1 SSTORE JUMPDEST CALLER PUSH1 0x0 SWAP1 DUP2 MSTORE PUSH1 0x7 PUSH1 0x20 MSTORE PUSH1 0x40 DUP2 KECCAK256 DUP1 SLOAD DUP5 SWAP3 SWAP1 PUSH2 0xB36 SWAP1 DUP5 SWAP1 PUSH2 0x16F7 JUMP JUMPDEST SWAP1 SWAP2 SSTORE POP POP CALLER PUSH1 0x0 SWAP1 DUP2 MSTORE PUSH1 0x7 PUSH1 0x20 MSTORE PUSH1 0x40 DUP2 KECCAK256 PUSH1 0x1 ADD DUP1 SLOAD DUP5 SWAP3 SWAP1 PUSH2 0xB5D SWAP1 DUP5 SWAP1 PUSH2 0x16F7 JUMP JUMPDEST SWAP1 SWAP2 SSTORE POP POP CALLER PUSH1 0x0 SWAP1 DUP2 MSTORE PUSH1 0x7 PUSH1 0x20 MSTORE PUSH1 0x40 SWAP1 KECCAK256 TIMESTAMP PUSH1 0x2 SWAP1 SWAP2 ADD SSTORE PUSH2 0xB81 DUP2 PUSH2 0x10D7 JUMP JUMPDEST CALLER PUSH1 0x0 DUP2 DUP2 MSTORE PUSH1 0x7 PUSH1 0x20 MSTORE PUSH1 0x40 SWAP1 DUP2 SWAP1 KECCAK256 SWAP3 DUP4 SSTORE PUSH1 0x3 SWAP1 SWAP3 ADD DUP4 SWAP1 SSTORE PUSH1 0x6 SLOAD SWAP2 MLOAD PUSH4 0x2770A7EB PUSH1 0xE2 SHL DUP2 MSTORE PUSH1 0x4 DUP2 ADD SWAP2 SWAP1 SWAP2 MSTORE PUSH1 0x24 DUP2 ADD DUP5 SWAP1 MSTORE PUSH1 0x1 PUSH1 0x1 PUSH1 0xA0 SHL SUB SWAP1 SWAP2 AND SWAP1 PUSH4 0x9DC29FAC SWAP1 PUSH1 0x44 ADD PUSH1 0x0 PUSH1 0x40 MLOAD DUP1 DUP4 SUB DUP2 PUSH1 0x0 DUP8 DUP1 EXTCODESIZE ISZERO DUP1 ISZERO PUSH2 0xBEA JUMPI PUSH1 0x0 DUP1 REVERT JUMPDEST POP GAS CALL ISZERO DUP1 ISZERO PUSH2 0xBFE JUMPI RETURNDATASIZE PUSH1 0x0 DUP1 RETURNDATACOPY RETURNDATASIZE PUSH1 0x0 REVERT JUMPDEST POP POP CALLER PUSH1 0x0 SWAP1 DUP2 MSTORE PUSH1 0x7 PUSH1 0x20 MSTORE PUSH1 0x40 DUP2 KECCAK256 PUSH1 0x1 DUP2 ADD SLOAD SWAP1 SLOAD SWAP2 SWAP4 POP PUSH2 0xC24 SWAP3 POP SWAP1 PUSH2 0x170F JUMP JUMPDEST SWAP1 POP PUSH1 0x0 DUP2 SLT ISZERO PUSH2 0xCBF JUMPI PUSH1 0x6 SLOAD PUSH1 0x5 SLOAD PUSH1 0x1 PUSH1 0x1 PUSH1 0xA0 SHL SUB SWAP2 DUP3 AND SWAP2 PUSH4 0x40C10F19 SWAP2 AND PUSH1 0xA PUSH2 0xC56 DUP6 PUSH1 0x0 NOT PUSH2 0x174E JUMP JUMPDEST PUSH2 0xC60 SWAP2 SWAP1 PUSH2 0x17E9 JUMP JUMPDEST PUSH1 0x40 MLOAD PUSH1 0x1 PUSH1 0x1 PUSH1 0xE0 SHL SUB NOT PUSH1 0xE0 DUP6 SWAP1 SHL AND DUP2 MSTORE PUSH1 0x1 PUSH1 0x1 PUSH1 0xA0 SHL SUB SWAP1 SWAP3 AND PUSH1 0x4 DUP4 ADD MSTORE PUSH1 0x24 DUP3 ADD MSTORE PUSH1 0x44 ADD PUSH1 0x0 PUSH1 0x40 MLOAD DUP1 DUP4 SUB DUP2 PUSH1 0x0 DUP8 DUP1 EXTCODESIZE ISZERO DUP1 ISZERO PUSH2 0xCA6 JUMPI PUSH1 0x0 DUP1 REVERT JUMPDEST POP GAS CALL ISZERO DUP1 ISZERO PUSH2 0xCBA JUMPI RETURNDATASIZE PUSH1 0x0 DUP1 RETURNDATACOPY RETURNDATASIZE PUSH1 0x0 REVERT JUMPDEST POP POP POP POP JUMPDEST POP POP POP JUMP JUMPDEST PUSH1 0x0 SLOAD PUSH1 0x1 PUSH1 0x1 PUSH1 0xA0 SHL SUB AND CALLER EQ PUSH2 0xCEE JUMPI PUSH1 0x40 MLOAD PUSH3 0x461BCD PUSH1 0xE5 SHL DUP2 MSTORE PUSH1 0x4 ADD PUSH2 0x4FA SWAP1 PUSH2 0x15BC JUMP JUMPDEST PUSH1 0x6 SLOAD PUSH1 0x1 PUSH1 0xA0 SHL SWAP1 DIV PUSH1 0xFF AND ISZERO ISZERO PUSH1 0x1 EQ PUSH2 0xD45 JUMPI PUSH1 0x40 MLOAD PUSH3 0x461BCD PUSH1 0xE5 SHL DUP2 MSTORE PUSH1 0x20 PUSH1 0x4 DUP3 ADD MSTORE PUSH1 0x16 PUSH1 0x24 DUP3 ADD MSTORE PUSH22 0x11985C9B481A5CC8185B1C9958591E4818DB1BDCD959 PUSH1 0x52 SHL PUSH1 0x44 DUP3 ADD MSTORE PUSH1 0x64 ADD PUSH2 0x4FA JUMP JUMPDEST PUSH1 0x6 DUP1 SLOAD PUSH1 0xFF PUSH1 0xA0 SHL NOT AND SWAP1 SSTORE JUMP JUMPDEST PUSH1 0x0 DUP1 PUSH1 0x3C PUSH2 0xD62 DUP5 PUSH2 0x7B9 JUMP JUMPDEST PUSH2 0xD6C SWAP2 SWAP1 PUSH2 0x17E9 JUMP JUMPDEST PUSH1 0x1 PUSH1 0x1 PUSH1 0xA0 SHL SUB DUP5 AND PUSH1 0x0 SWAP1 DUP2 MSTORE PUSH1 0x7 PUSH1 0x20 SWAP1 DUP2 MSTORE PUSH1 0x40 SWAP2 DUP3 SWAP1 KECCAK256 DUP3 MLOAD PUSH1 0x80 DUP2 ADD DUP5 MSTORE DUP2 SLOAD DUP1 DUP3 MSTORE PUSH1 0x1 DUP4 ADD SLOAD SWAP4 DUP3 ADD DUP5 SWAP1 MSTORE PUSH1 0x2 DUP4 ADD SLOAD SWAP5 DUP3 ADD SWAP5 SWAP1 SWAP5 MSTORE PUSH1 0x3 SWAP1 SWAP2 ADD SLOAD PUSH1 0x60 DUP3 ADD MSTORE SWAP3 SWAP4 POP GT DUP1 ISZERO PUSH2 0xDCB JUMPI POP DUP1 PUSH1 0x60 ADD MLOAD DUP3 LT ISZERO JUMPDEST ISZERO PUSH2 0xDD8 JUMPI MLOAD SWAP4 SWAP3 POP POP POP JUMP JUMPDEST PUSH1 0x0 PUSH1 0x14 DUP4 GT PUSH2 0xE86 JUMPI PUSH1 0x2 PUSH1 0x4 SLOAD PUSH2 0xDF1 SWAP2 SWAP1 PUSH2 0x18E1 JUMP JUMPDEST PUSH2 0xDFC SWAP1 PUSH1 0x64 PUSH2 0x16BF JUMP JUMPDEST DUP3 PUSH1 0x20 ADD MLOAD PUSH1 0x2 PUSH1 0x4 SLOAD PUSH2 0xE10 SWAP2 SWAP1 PUSH2 0x18E1 JUMP JUMPDEST PUSH2 0xE1B SWAP1 PUSH1 0x64 PUSH2 0x16BF JUMP JUMPDEST PUSH1 0x10 PUSH1 0x2 PUSH1 0x4 SLOAD PUSH2 0xE2C SWAP2 SWAP1 PUSH2 0x18E1 JUMP JUMPDEST PUSH2 0xE37 PUSH1 0x2 DUP10 PUSH2 0x18E1 JUMP JUMPDEST PUSH2 0xE41 SWAP2 SWAP1 PUSH2 0x16BF JUMP JUMPDEST PUSH2 0xE4B SWAP2 SWAP1 PUSH2 0x17E9 JUMP JUMPDEST PUSH2 0xE55 SWAP2 SWAP1 PUSH2 0x16F7 JUMP JUMPDEST PUSH2 0xE5F SWAP2 SWAP1 PUSH2 0x16BF JUMP JUMPDEST PUSH2 0xE69 SWAP2 SWAP1 PUSH2 0x17E9 JUMP JUMPDEST DUP3 MLOAD SWAP1 SWAP2 POP DUP2 LT PUSH2 0xE7B JUMPI DUP2 MLOAD PUSH2 0xE7D JUMP JUMPDEST DUP1 JUMPDEST SWAP6 SWAP5 POP POP POP POP POP JUMP JUMPDEST PUSH1 0x28 DUP4 GT PUSH2 0xED8 JUMPI PUSH1 0x2 PUSH1 0x4 SLOAD PUSH2 0xE9D SWAP2 SWAP1 PUSH2 0x18E1 JUMP JUMPDEST PUSH2 0xEA8 SWAP1 PUSH1 0x64 PUSH2 0x16BF JUMP JUMPDEST DUP3 PUSH1 0x20 ADD MLOAD PUSH1 0x2 PUSH1 0x4 SLOAD PUSH2 0xEBC SWAP2 SWAP1 PUSH2 0x18E1 JUMP JUMPDEST PUSH2 0xEC7 SWAP1 PUSH1 0x44 PUSH2 0x16BF JUMP JUMPDEST PUSH1 0x7 PUSH1 0x2 PUSH1 0x4 SLOAD PUSH2 0xE2C SWAP2 SWAP1 PUSH2 0x18E1 JUMP JUMPDEST PUSH1 0x3C DUP4 GT PUSH2 0xF53 JUMPI PUSH1 0x2 PUSH1 0x4 SLOAD PUSH2 0xEEF SWAP2 SWAP1 PUSH2 0x18E1 JUMP JUMPDEST PUSH2 0xEFA SWAP1 PUSH1 0x64 PUSH2 0x16BF JUMP JUMPDEST DUP3 PUSH1 0x20 ADD MLOAD PUSH1 0x2 PUSH1 0x4 SLOAD PUSH2 0xF0E SWAP2 SWAP1 PUSH2 0x18E1 JUMP JUMPDEST PUSH2 0xF1A SWAP1 PUSH2 0x1F7 PUSH2 0x16BF JUMP JUMPDEST PUSH1 0x2 DUP1 PUSH1 0x4 SLOAD PUSH2 0xF2A SWAP2 SWAP1 PUSH2 0x18E1 JUMP JUMPDEST PUSH2 0xF35 PUSH1 0x2 DUP10 PUSH2 0x18E1 JUMP JUMPDEST PUSH2 0xF3F SWAP2 SWAP1 PUSH2 0x16BF JUMP JUMPDEST PUSH2 0xF49 SWAP2 SWAP1 PUSH2 0x17E9 JUMP JUMPDEST PUSH2 0xE55 SWAP2 SWAP1 PUSH2 0x164B JUMP JUMPDEST POP MLOAD SWAP4 SWAP3 POP POP POP JUMP JUMPDEST PUSH1 0x0 SLOAD PUSH1 0x1 PUSH1 0x1 PUSH1 0xA0 SHL SUB AND CALLER EQ PUSH2 0xF86 JUMPI PUSH1 0x40 MLOAD PUSH3 0x461BCD PUSH1 0xE5 SHL DUP2 MSTORE PUSH1 0x4 ADD PUSH2 0x4FA SWAP1 PUSH2 0x15BC JUMP JUMPDEST PUSH1 0x6 SLOAD PUSH1 0x1 PUSH1 0xA0 SHL SWAP1 DIV PUSH1 0xFF AND ISZERO PUSH2 0xFD7 JUMPI PUSH1 0x40 MLOAD PUSH3 0x461BCD PUSH1 0xE5 SHL DUP2 MSTORE PUSH1 0x20 PUSH1 0x4 DUP3 ADD MSTORE PUSH1 0x14 PUSH1 0x24 DUP3 ADD MSTORE PUSH20 0x2330B9369034B99030B63932B0B23C9037B832B7 PUSH1 0x61 SHL PUSH1 0x44 DUP3 ADD MSTORE PUSH1 0x64 ADD PUSH2 0x4FA JUMP JUMPDEST PUSH1 0x6 DUP1 SLOAD PUSH1 0xFF PUSH1 0xA0 SHL NOT AND PUSH1 0x1 PUSH1 0xA0 SHL OR SWAP1 SSTORE JUMP JUMPDEST PUSH1 0x0 SLOAD PUSH1 0x1 PUSH1 0x1 PUSH1 0xA0 SHL SUB AND CALLER EQ PUSH2 0x1016 JUMPI PUSH1 0x40 MLOAD PUSH3 0x461BCD PUSH1 0xE5 SHL DUP2 MSTORE PUSH1 0x4 ADD PUSH2 0x4FA SWAP1 PUSH2 0x15BC JUMP JUMPDEST PUSH1 0x1 PUSH1 0x1 PUSH1 0xA0 SHL SUB DUP2 AND PUSH2 0x107B JUMPI PUSH1 0x40 MLOAD PUSH3 0x461BCD PUSH1 0xE5 SHL DUP2 MSTORE PUSH1 0x20 PUSH1 0x4 DUP3 ADD MSTORE PUSH1 0x26 PUSH1 0x24 DUP3 ADD MSTORE PUSH32 0x4F776E61626C653A206E6577206F776E657220697320746865207A65726F2061 PUSH1 0x44 DUP3 ADD MSTORE PUSH6 0x646472657373 PUSH1 0xD0 SHL PUSH1 0x64 DUP3 ADD MSTORE PUSH1 0x84 ADD PUSH2 0x4FA JUMP JUMPDEST PUSH2 0x1084 DUP2 PUSH2 0x1087 JUMP JUMPDEST POP JUMP JUMPDEST PUSH1 0x0 DUP1 SLOAD PUSH1 0x1 PUSH1 0x1 PUSH1 0xA0 SHL SUB DUP4 DUP2 AND PUSH1 0x1 PUSH1 0x1 PUSH1 0xA0 SHL SUB NOT DUP4 AND DUP2 OR DUP5 SSTORE PUSH1 0x40 MLOAD SWAP2 SWAP1 SWAP3 AND SWAP3 DUP4 SWAP2 PUSH32 0x8BE0079C531659141344CD1FD0A4F28419497F9722A3DAAFE3B4186F6B6457E0 SWAP2 SWAP1 LOG3 POP POP JUMP JUMPDEST PUSH1 0x0 DUP1 PUSH2 0x10E3 CALLER PUSH2 0x13B7 JUMP JUMPDEST CALLER PUSH1 0x0 SWAP1 DUP2 MSTORE PUSH1 0x7 PUSH1 0x20 SWAP1 DUP2 MSTORE PUSH1 0x40 SWAP2 DUP3 SWAP1 KECCAK256 DUP3 MLOAD PUSH1 0x80 DUP2 ADD DUP5 MSTORE DUP2 SLOAD DUP2 MSTORE PUSH1 0x1 DUP3 ADD SLOAD SWAP3 DUP2 ADD SWAP3 SWAP1 SWAP3 MSTORE PUSH1 0x2 DUP2 ADD SLOAD SWAP3 DUP3 ADD SWAP3 SWAP1 SWAP3 MSTORE PUSH1 0x3 SWAP1 SWAP2 ADD SLOAD PUSH1 0x60 DUP3 ADD MSTORE SWAP1 SWAP2 POP PUSH32 0xEA6766282CAC5FDD1F316B73EA49F9700412179EAA1DF430A45BAEB542A8C461 PUSH2 0x115C PUSH2 0x1157 DUP7 PUSH1 0x3C PUSH2 0x16BF JUMP JUMPDEST PUSH2 0x1450 JUMP JUMPDEST PUSH1 0x40 MLOAD PUSH2 0x1169 SWAP2 SWAP1 PUSH2 0x18F0 JUMP JUMPDEST PUSH1 0x40 MLOAD DUP1 SWAP2 SUB SWAP1 LOG1 PUSH32 0xEA6766282CAC5FDD1F316B73EA49F9700412179EAA1DF430A45BAEB542A8C461 PUSH2 0x119B DUP4 PUSH2 0x1450 JUMP JUMPDEST PUSH1 0x40 MLOAD PUSH2 0x11A8 SWAP2 SWAP1 PUSH2 0x18F0 JUMP JUMPDEST PUSH1 0x40 MLOAD DUP1 SWAP2 SUB SWAP1 LOG1 DUP2 DUP2 PUSH1 0x40 ADD MLOAD PUSH2 0x11C0 SWAP2 SWAP1 PUSH2 0x16F7 JUMP JUMPDEST PUSH2 0x11CB DUP6 PUSH1 0x3C PUSH2 0x16BF JUMP JUMPDEST DUP3 PUSH1 0x40 ADD MLOAD PUSH2 0x11DA SWAP2 SWAP1 PUSH2 0x16F7 JUMP JUMPDEST GT ISZERO PUSH2 0x1267 JUMPI PUSH32 0x9B4A69ADAFA0D7FF3FB0F324861E9813B94FF3198B2C8CE4E3373A75EA0E5509 CALLER PUSH1 0x8 SLOAD PUSH1 0x4 SLOAD DUP5 PUSH1 0x0 ADD MLOAD PUSH2 0x1217 SWAP2 SWAP1 PUSH2 0x16BF JUMP JUMPDEST PUSH2 0x1221 SWAP2 SWAP1 PUSH2 0x17E9 JUMP JUMPDEST PUSH1 0x40 DUP1 MLOAD PUSH1 0x1 PUSH1 0x1 PUSH1 0xA0 SHL SUB SWAP1 SWAP4 AND DUP4 MSTORE PUSH1 0x20 DUP4 ADD SWAP2 SWAP1 SWAP2 MSTORE ADD PUSH1 0x40 MLOAD DUP1 SWAP2 SUB SWAP1 LOG1 PUSH1 0x8 SLOAD PUSH1 0x4 SLOAD DUP3 MLOAD PUSH2 0x1255 SWAP2 SWAP1 PUSH2 0x16BF JUMP JUMPDEST PUSH2 0x125F SWAP2 SWAP1 PUSH2 0x17E9 JUMP JUMPDEST SWAP5 SWAP4 POP POP POP POP JUMP JUMPDEST PUSH1 0x14 DUP5 GT PUSH2 0x12E9 JUMPI PUSH1 0x2 PUSH1 0x4 SLOAD PUSH2 0x127E SWAP2 SWAP1 PUSH2 0x18E1 JUMP JUMPDEST PUSH2 0x1289 SWAP1 PUSH1 0x64 PUSH2 0x16BF JUMP JUMPDEST DUP2 MLOAD PUSH1 0x4 SLOAD PUSH2 0x129A SWAP1 PUSH1 0x2 SWAP1 PUSH2 0x18E1 JUMP JUMPDEST PUSH2 0x12A5 SWAP1 PUSH1 0x64 PUSH2 0x16BF JUMP JUMPDEST PUSH1 0x10 PUSH1 0x2 PUSH1 0x4 SLOAD PUSH2 0x12B6 SWAP2 SWAP1 PUSH2 0x18E1 JUMP JUMPDEST PUSH2 0x12C1 PUSH1 0x2 DUP11 PUSH2 0x18E1 JUMP JUMPDEST PUSH2 0x12CB SWAP2 SWAP1 PUSH2 0x16BF JUMP JUMPDEST PUSH2 0x12D5 SWAP2 SWAP1 PUSH2 0x17E9 JUMP JUMPDEST PUSH2 0x12DF SWAP2 SWAP1 PUSH2 0x16F7 JUMP JUMPDEST PUSH2 0x1255 SWAP2 SWAP1 PUSH2 0x16BF JUMP JUMPDEST PUSH1 0x28 DUP5 GT PUSH2 0x1338 JUMPI PUSH1 0x2 PUSH1 0x4 SLOAD PUSH2 0x1300 SWAP2 SWAP1 PUSH2 0x18E1 JUMP JUMPDEST PUSH2 0x130B SWAP1 PUSH1 0x64 PUSH2 0x16BF JUMP JUMPDEST DUP2 MLOAD PUSH1 0x4 SLOAD PUSH2 0x131C SWAP1 PUSH1 0x2 SWAP1 PUSH2 0x18E1 JUMP JUMPDEST PUSH2 0x1327 SWAP1 PUSH1 0x44 PUSH2 0x16BF JUMP JUMPDEST PUSH1 0x7 PUSH1 0x2 PUSH1 0x4 SLOAD PUSH2 0x12B6 SWAP2 SWAP1 PUSH2 0x18E1 JUMP JUMPDEST PUSH1 0x3C DUP5 GT PUSH2 0x13B0 JUMPI PUSH1 0x2 PUSH1 0x4 SLOAD PUSH2 0x134F SWAP2 SWAP1 PUSH2 0x18E1 JUMP JUMPDEST PUSH2 0x135A SWAP1 PUSH1 0x64 PUSH2 0x16BF JUMP JUMPDEST DUP2 MLOAD PUSH1 0x4 SLOAD PUSH2 0x136B SWAP1 PUSH1 0x2 SWAP1 PUSH2 0x18E1 JUMP JUMPDEST PUSH2 0x1377 SWAP1 PUSH2 0x1F7 PUSH2 0x16BF JUMP JUMPDEST PUSH1 0x2 DUP1 PUSH1 0x4 SLOAD PUSH2 0x1387 SWAP2 SWAP1 PUSH2 0x18E1 JUMP JUMPDEST PUSH2 0x1392 PUSH1 0x2 DUP11 PUSH2 0x18E1 JUMP JUMPDEST PUSH2 0x139C SWAP2 SWAP1 PUSH2 0x16BF JUMP JUMPDEST PUSH2 0x13A6 SWAP2 SWAP1 PUSH2 0x17E9 JUMP JUMPDEST PUSH2 0x12DF SWAP2 SWAP1 PUSH2 0x164B JUMP JUMPDEST POP POP SWAP2 SWAP1 POP JUMP JUMPDEST PUSH1 0x0 PUSH1 0x2 PUSH1 0x1 PUSH1 0x0 DUP3 DUP3 SLOAD PUSH2 0x13CC SWAP2 SWAP1 PUSH2 0x16F7 JUMP JUMPDEST SWAP1 SWAP2 SSTORE POP POP PUSH1 0x3 SLOAD PUSH1 0x0 SWAP1 PUSH2 0x13E3 SWAP1 PUSH1 0x3C SWAP1 PUSH2 0x164B JUMP JUMPDEST PUSH1 0x1 SLOAD PUSH1 0x40 DUP1 MLOAD TIMESTAMP PUSH1 0x20 DUP3 ADD MSTORE PUSH12 0xFFFFFFFFFFFFFFFFFFFFFFFF NOT PUSH1 0x60 DUP9 SWAP1 SHL AND SWAP2 DUP2 ADD SWAP2 SWAP1 SWAP2 MSTORE PUSH1 0x54 DUP2 ADD SWAP2 SWAP1 SWAP2 MSTORE PUSH1 0x74 ADD PUSH1 0x40 MLOAD PUSH1 0x20 DUP2 DUP4 SUB SUB DUP2 MSTORE SWAP1 PUSH1 0x40 MSTORE DUP1 MLOAD SWAP1 PUSH1 0x20 ADD KECCAK256 PUSH1 0x0 SHR PUSH2 0x1439 SWAP2 SWAP1 PUSH2 0x1945 JUMP JUMPDEST PUSH2 0x1444 SWAP1 PUSH1 0x3D PUSH2 0x16F7 JUMP JUMPDEST PUSH1 0x2 DUP2 SWAP1 SSTORE SWAP4 SWAP3 POP POP POP JUMP JUMPDEST PUSH1 0x60 DUP2 PUSH1 0x0 SUB PUSH2 0x1477 JUMPI POP POP PUSH1 0x40 DUP1 MLOAD DUP1 DUP3 ADD SWAP1 SWAP2 MSTORE PUSH1 0x1 DUP2 MSTORE PUSH1 0x3 PUSH1 0xFC SHL PUSH1 0x20 DUP3 ADD MSTORE SWAP1 JUMP JUMPDEST DUP2 PUSH1 0x0 JUMPDEST DUP2 ISZERO PUSH2 0x14A1 JUMPI DUP1 PUSH2 0x148B DUP2 PUSH2 0x1959 JUMP JUMPDEST SWAP2 POP PUSH2 0x149A SWAP1 POP PUSH1 0xA DUP4 PUSH2 0x17E9 JUMP JUMPDEST SWAP2 POP PUSH2 0x147B JUMP JUMPDEST PUSH1 0x0 DUP2 PUSH8 0xFFFFFFFFFFFFFFFF DUP2 GT ISZERO PUSH2 0x14BC JUMPI PUSH2 0x14BC PUSH2 0x1972 JUMP JUMPDEST PUSH1 0x40 MLOAD SWAP1 DUP1 DUP3 MSTORE DUP1 PUSH1 0x1F ADD PUSH1 0x1F NOT AND PUSH1 0x20 ADD DUP3 ADD PUSH1 0x40 MSTORE DUP1 ISZERO PUSH2 0x14E6 JUMPI PUSH1 0x20 DUP3 ADD DUP2 DUP1 CALLDATASIZE DUP4 CALLDATACOPY ADD SWAP1 POP JUMPDEST POP SWAP1 POP JUMPDEST DUP5 ISZERO PUSH2 0xE7B JUMPI PUSH2 0x14FB PUSH1 0x1 DUP4 PUSH2 0x164B JUMP JUMPDEST SWAP2 POP PUSH2 0x1508 PUSH1 0xA DUP7 PUSH2 0x1945 JUMP JUMPDEST PUSH2 0x1513 SWAP1 PUSH1 0x30 PUSH2 0x16F7 JUMP JUMPDEST PUSH1 0xF8 SHL DUP2 DUP4 DUP2 MLOAD DUP2 LT PUSH2 0x1528 JUMPI PUSH2 0x1528 PUSH2 0x1988 JUMP JUMPDEST PUSH1 0x20 ADD ADD SWAP1 PUSH1 0x1 PUSH1 0x1 PUSH1 0xF8 SHL SUB NOT AND SWAP1 DUP2 PUSH1 0x0 BYTE SWAP1 MSTORE8 POP PUSH2 0x154A PUSH1 0xA DUP7 PUSH2 0x17E9 JUMP JUMPDEST SWAP5 POP PUSH2 0x14EA JUMP JUMPDEST PUSH1 0x0 PUSH1 0x20 DUP3 DUP5 SUB SLT ISZERO PUSH2 0x1563 JUMPI PUSH1 0x0 DUP1 REVERT JUMPDEST DUP2 CALLDATALOAD PUSH1 0x1 PUSH1 0x1 PUSH1 0xA0 SHL SUB DUP2 AND DUP2 EQ PUSH2 0x157A JUMPI PUSH1 0x0 DUP1 REVERT JUMPDEST SWAP4 SWAP3 POP POP POP JUMP JUMPDEST PUSH1 0x0 PUSH1 0x20 DUP3 DUP5 SUB SLT ISZERO PUSH2 0x1593 JUMPI PUSH1 0x0 DUP1 REVERT JUMPDEST POP CALLDATALOAD SWAP2 SWAP1 POP JUMP JUMPDEST PUSH1 0x0 DUP1 PUSH1 0x40 DUP4 DUP6 SUB SLT ISZERO PUSH2 0x15AD JUMPI PUSH1 0x0 DUP1 REVERT JUMPDEST POP POP DUP1 CALLDATALOAD SWAP3 PUSH1 0x20 SWAP1 SWAP2 ADD CALLDATALOAD SWAP2 POP JUMP JUMPDEST PUSH1 0x20 DUP1 DUP3 MSTORE DUP2 DUP2 ADD MSTORE PUSH32 0x4F776E61626C653A2063616C6C6572206973206E6F7420746865206F776E6572 PUSH1 0x40 DUP3 ADD MSTORE PUSH1 0x60 ADD SWAP1 JUMP JUMPDEST PUSH1 0x20 DUP1 DUP3 MSTORE PUSH1 0x24 SWAP1 DUP3 ADD MSTORE PUSH32 0x5374616B696E67206973206E6F7420616C6C6F77656420617420746865206D6F PUSH1 0x40 DUP3 ADD MSTORE PUSH4 0x1B595B9D PUSH1 0xE2 SHL PUSH1 0x60 DUP3 ADD MSTORE PUSH1 0x80 ADD SWAP1 JUMP JUMPDEST PUSH4 0x4E487B71 PUSH1 0xE0 SHL PUSH1 0x0 MSTORE PUSH1 0x11 PUSH1 0x4 MSTORE PUSH1 0x24 PUSH1 0x0 REVERT JUMPDEST PUSH1 0x0 DUP3 DUP3 LT ISZERO PUSH2 0x165D JUMPI PUSH2 0x165D PUSH2 0x1635 JUMP JUMPDEST POP SUB SWAP1 JUMP JUMPDEST PUSH1 0x20 DUP1 DUP3 MSTORE PUSH1 0x3C SWAP1 DUP3 ADD MSTORE PUSH32 0x596F75206861766520746F2077616974206C6F6E67657220746F206265206162 PUSH1 0x40 DUP3 ADD MSTORE PUSH32 0x6C6520746F20436C61696D2F5265696E766573742F556E7374616B6500000000 PUSH1 0x60 DUP3 ADD MSTORE PUSH1 0x80 ADD SWAP1 JUMP JUMPDEST PUSH1 0x0 DUP2 PUSH1 0x0 NOT DIV DUP4 GT DUP3 ISZERO ISZERO AND ISZERO PUSH2 0x16D9 JUMPI PUSH2 0x16D9 PUSH2 0x1635 JUMP JUMPDEST POP MUL SWAP1 JUMP JUMPDEST PUSH1 0x0 PUSH1 0x20 DUP3 DUP5 SUB SLT ISZERO PUSH2 0x16F0 JUMPI PUSH1 0x0 DUP1 REVERT JUMPDEST POP MLOAD SWAP2 SWAP1 POP JUMP JUMPDEST PUSH1 0x0 DUP3 NOT DUP3 GT ISZERO PUSH2 0x170A JUMPI PUSH2 0x170A PUSH2 0x1635 JUMP JUMPDEST POP ADD SWAP1 JUMP JUMPDEST PUSH1 0x0 DUP1 DUP4 SLT DUP1 ISZERO PUSH1 0x1 PUSH1 0xFF SHL DUP6 ADD DUP5 SLT AND ISZERO PUSH2 0x172D JUMPI PUSH2 0x172D PUSH2 0x1635 JUMP JUMPDEST PUSH1 0x1 PUSH1 0x1 PUSH1 0xFF SHL SUB DUP5 ADD DUP4 SGT DUP2 AND ISZERO PUSH2 0x1748 JUMPI PUSH2 0x1748 PUSH2 0x1635 JUMP JUMPDEST POP POP SUB SWAP1 JUMP JUMPDEST PUSH1 0x0 PUSH1 0x1 PUSH1 0x1 PUSH1 0xFF SHL SUB DUP2 DUP5 SGT DUP3 DUP5 SGT DUP1 DUP3 AND DUP7 DUP5 DIV DUP7 GT AND ISZERO PUSH2 0x1774 JUMPI PUSH2 0x1774 PUSH2 0x1635 JUMP JUMPDEST PUSH1 0x1 PUSH1 0xFF SHL PUSH1 0x0 DUP8 SLT DUP3 DUP2 AND DUP8 DUP4 SDIV DUP10 SLT AND ISZERO PUSH2 0x1793 JUMPI PUSH2 0x1793 PUSH2 0x1635 JUMP JUMPDEST PUSH1 0x0 DUP8 SLT SWAP3 POP DUP8 DUP3 SDIV DUP8 SLT DUP5 DUP5 AND AND ISZERO PUSH2 0x17AF JUMPI PUSH2 0x17AF PUSH2 0x1635 JUMP JUMPDEST DUP8 DUP6 SDIV DUP8 SLT DUP2 DUP5 AND AND ISZERO PUSH2 0x17C5 JUMPI PUSH2 0x17C5 PUSH2 0x1635 JUMP JUMPDEST POP POP POP SWAP3 SWAP1 SWAP4 MUL SWAP4 SWAP3 POP POP POP JUMP JUMPDEST PUSH4 0x4E487B71 PUSH1 0xE0 SHL PUSH1 0x0 MSTORE PUSH1 0x12 PUSH1 0x4 MSTORE PUSH1 0x24 PUSH1 0x0 REVERT JUMPDEST PUSH1 0x0 DUP3 PUSH2 0x17F8 JUMPI PUSH2 0x17F8 PUSH2 0x17D3 JUMP JUMPDEST POP DIV SWAP1 JUMP JUMPDEST PUSH1 0x1 DUP2 DUP2 JUMPDEST DUP1 DUP6 GT ISZERO PUSH2 0x1838 JUMPI DUP2 PUSH1 0x0 NOT DIV DUP3 GT ISZERO PUSH2 0x181E JUMPI PUSH2 0x181E PUSH2 0x1635 JUMP JUMPDEST DUP1 DUP6 AND ISZERO PUSH2 0x182B JUMPI SWAP2 DUP2 MUL SWAP2 JUMPDEST SWAP4 DUP5 SHR SWAP4 SWAP1 DUP1 MUL SWAP1 PUSH2 0x1802 JUMP JUMPDEST POP SWAP3 POP SWAP3 SWAP1 POP JUMP JUMPDEST PUSH1 0x0 DUP3 PUSH2 0x184F JUMPI POP PUSH1 0x1 PUSH2 0x7DF JUMP JUMPDEST DUP2 PUSH2 0x185C JUMPI POP PUSH1 0x0 PUSH2 0x7DF JUMP JUMPDEST DUP2 PUSH1 0x1 DUP2 EQ PUSH2 0x1872 JUMPI PUSH1 0x2 DUP2 EQ PUSH2 0x187C JUMPI PUSH2 0x1898 JUMP JUMPDEST PUSH1 0x1 SWAP2 POP POP PUSH2 0x7DF JUMP JUMPDEST PUSH1 0xFF DUP5 GT ISZERO PUSH2 0x188D JUMPI PUSH2 0x188D PUSH2 0x1635 JUMP JUMPDEST POP POP PUSH1 0x1 DUP3 SHL PUSH2 0x7DF JUMP JUMPDEST POP PUSH1 0x20 DUP4 LT PUSH2 0x133 DUP4 LT AND PUSH1 0x4E DUP5 LT PUSH1 0xB DUP5 LT AND OR ISZERO PUSH2 0x18BB JUMPI POP DUP2 DUP2 EXP PUSH2 0x7DF JUMP JUMPDEST PUSH2 0x18C5 DUP4 DUP4 PUSH2 0x17FD JUMP JUMPDEST DUP1 PUSH1 0x0 NOT DIV DUP3 GT ISZERO PUSH2 0x18D9 JUMPI PUSH2 0x18D9 PUSH2 0x1635 JUMP JUMPDEST MUL SWAP4 SWAP3 POP POP POP JUMP JUMPDEST PUSH1 0x0 PUSH2 0x157A PUSH1 0xFF DUP5 AND DUP4 PUSH2 0x1840 JUMP JUMPDEST PUSH1 0x0 PUSH1 0x20 DUP1 DUP4 MSTORE DUP4 MLOAD DUP1 DUP3 DUP6 ADD MSTORE PUSH1 0x0 JUMPDEST DUP2 DUP2 LT ISZERO PUSH2 0x191D JUMPI DUP6 DUP2 ADD DUP4 ADD MLOAD DUP6 DUP3 ADD PUSH1 0x40 ADD MSTORE DUP3 ADD PUSH2 0x1901 JUMP JUMPDEST DUP2 DUP2 GT ISZERO PUSH2 0x192F JUMPI PUSH1 0x0 PUSH1 0x40 DUP4 DUP8 ADD ADD MSTORE JUMPDEST POP PUSH1 0x1F ADD PUSH1 0x1F NOT AND SWAP3 SWAP1 SWAP3 ADD PUSH1 0x40 ADD SWAP4 SWAP3 POP POP POP JUMP JUMPDEST PUSH1 0x0 DUP3 PUSH2 0x1954 JUMPI PUSH2 0x1954 PUSH2 0x17D3 JUMP JUMPDEST POP MOD SWAP1 JUMP JUMPDEST PUSH1 0x0 PUSH1 0x1 DUP3 ADD PUSH2 0x196B JUMPI PUSH2 0x196B PUSH2 0x1635 JUMP JUMPDEST POP PUSH1 0x1 ADD SWAP1 JUMP JUMPDEST PUSH4 0x4E487B71 PUSH1 0xE0 SHL PUSH1 0x0 MSTORE PUSH1 0x41 PUSH1 0x4 MSTORE PUSH1 0x24 PUSH1 0x0 REVERT JUMPDEST PUSH4 0x4E487B71 PUSH1 0xE0 SHL PUSH1 0x0 MSTORE PUSH1 0x32 PUSH1 0x4 MSTORE PUSH1 0x24 PUSH1 0x0 REVERT INVALID LOG2 PUSH5 0x6970667358 0x22 SLT KECCAK256 0xE5 0xCA SWAP6 0xB9 PUSH6 0xB5A695ADCA02 SWAP16 0xE0 0xE5 0x28 GT CALLVALUE STATICCALL PUSH31 0x2C8CC06A7A31977A1D5258F86064736F6C634300080D003300000000000000 ","sha1":"ad56a29b5e74aa154fcc2fcd2818700db492ef43","source":"// SPDX-License-Identifier: MIT\npragma solidity ^0.8.0;\n\nimport \"@openzeppelin/contracts/token/ERC20/IERC20.sol\";\nimport \"@openzeppelin/contracts/access/Ownable.sol\";\nimport \"@openzeppelin/contracts/utils/Strings.sol\";\nimport \"./StakeToken.sol\";\n\ncontract SpeculateFarm is Ownable {\n    uint256 public nonce = 33;\n    uint256 public randomNumber;\n    uint256 public timeGap;\n    uint256 public decimals = 10**4;\n    address public team;\n\n    StakeToken stakeToken;\n    bool public speculateAllowed;\n\n    struct User {\n        uint256 amountStaked;\n        uint256 previousBalance;\n        uint256 startDate;\n        uint256 timeGuess;\n    }\n\n    mapping(address => User) public users;\n    uint256 public returnRate;\n\n    event Received(address, uint256);\n    event Calculating(address, uint256);\n    event Say(string);\n    event Claim(bool);\n\n    modifier speculatingAllowed() {\n        require(\n            speculateAllowed == true,\n            \"Staking is not allowed at the moment\"\n        );\n        _;\n    }\n    modifier isClaimable() {\n        require(\n            (block.timestamp - users[msg.sender].startDate >= timeGap) ||\n                (users[msg.sender].amountStaked == 0),\n            \"You have to wait longer to be able to Claim/Reinvest/Unstake\"\n        );\n        _;\n    }\n\n    constructor(address _stakeToken) payable {\n        stakeToken = StakeToken(_stakeToken);\n        timeGap = 1 * (60 * 60); // 1 hour\n        speculateAllowed = false;\n        returnRate = 10 * decimals; //90% rug\n    }\n\n    //TimeGuess is inputted in mins so we have to convert into secs\n    //IsClaimable because we do not want them to add more when after they started\n    function stake(uint256 _amount, uint256 _timeGuess)\n        public\n        speculatingAllowed\n        isClaimable\n    {\n        require(\n            _amount > 0 || stakeToken.balanceOf(msg.sender) > 0,\n            \"Amount to be staked needs to be greater than 0\"\n        );\n        require(\n            _amount <= stakeToken.balanceOf(msg.sender),\n            \"Can't stake more than you have\"\n        );\n        require(\n            _timeGuess >= 1 && _timeGuess <= 60,\n            \"Your guess needs to be between 1 and 60 inclusively\"\n        );\n        // User memory user = users[msg.sender];\n        // user = User(\n        //     user.amountStaked + _amount,\n        //     user.previousBalance + _amount,\n        //     block.timestamp\n        // );\n        // users[msg.sender] = user;\n        // users[msg.sender].amountStaked = calculateEarnings(_timeGuess);\n\n        //what if they already staked and lost money?\n        if (\n            users[msg.sender].amountStaked < users[msg.sender].previousBalance\n        ) {\n            users[msg.sender].amountStaked = users[msg.sender].previousBalance;\n        }\n        users[msg.sender].amountStaked += _amount;\n        users[msg.sender].previousBalance += _amount;\n        users[msg.sender].startDate = block.timestamp;\n        users[msg.sender].amountStaked = calculateEarnings(_timeGuess);\n        users[msg.sender].timeGuess = _timeGuess;\n\n        stakeToken.burn(msg.sender, _amount);\n\n        int256 difference = int256(users[msg.sender].amountStaked) -\n            int256(users[msg.sender].previousBalance);\n        //did they lose money then the team gets 10% for advertising and fees?\n        if (difference < 0) {\n            stakeToken.mint(team, uint256((-1 * difference)) / 10);\n        }\n    }\n\n    //TimeGuess is inputted in mins so we have to convert into secs\n    //IsClaimable because we do not want them to add more when after they started\n    //Just like stake but instead we are just using what is already staked\n    // function restake(uint256 _timeGuess) public speculatingAllowed isClaimable {\n    //     emit Claim(canClaim());\n    //     require(users[msg.sender].amountStaked > 0, \"Can't restake 0\");\n    //     users[msg.sender].amountStaked = calculateEarnings(_timeGuess);\n    //     users[msg.sender].startDate = block.timestamp;\n    // }\n\n    function unstake(uint256 _amount) public speculatingAllowed isClaimable {\n        require(\n            _amount > 0,\n            \"Amount to be unstaked needs to be greater than 0\"\n        );\n\n        //If the user unstakes before staking period is up, don't adjust values\n\n        User memory user = users[msg.sender];\n        uint256 stakeAmount = user.amountStaked;\n        require(\n            _amount <= user.amountStaked,\n            \"Can't unstake more than you have, check again\"\n        );\n        //Team gets 10% for marketing\n\n        user.amountStaked -= _amount;\n        user.previousBalance = user.amountStaked;\n\n        user.timeGuess = 0;\n        stakeToken.mint(msg.sender, _amount);\n\n        //After Calculating the new balance, the amount you want to unstake is too much\n        //So we just reset the start date and allow you to unstake the amount you want again\n        //And when you unstake again, if its a partial amount then we do not change your start date\n        users[msg.sender] = user;\n    }\n\n    function calculateEarnings(uint256 _timeGuess) internal returns (uint256) {\n        uint256 random = setBurnMin(msg.sender);\n        User memory user = users[msg.sender];\n        //Was the guess over? return only the percent returned value\n\n        emit Say(Strings.toString(_timeGuess * 60));\n\n        emit Say(Strings.toString(random));\n\n        //You guessed before, so now we calculate your earnings\n        if (user.startDate + (_timeGuess * 60) > user.startDate + random) {\n            emit Calculating(\n                msg.sender,\n                (user.amountStaked * decimals) / returnRate\n            );\n            return (user.amountStaked * decimals) / returnRate;\n        }\n\n        if (_timeGuess <= 20) {\n            return (((((_timeGuess**2 * decimals**2) / 16) +\n                100 *\n                decimals**2) * user.amountStaked) / (100 * decimals**2));\n        }\n        if (_timeGuess <= 40) {\n            return\n                ((((_timeGuess**2 * decimals**2) / 7) + 68 * decimals**2) *\n                    user.amountStaked) / (100 * decimals**2);\n        }\n\n        if (_timeGuess <= 60) {\n            return\n                (((((_timeGuess**2 * decimals**2) / 2) - 503 * decimals**2)) *\n                    user.amountStaked) / (100 * decimals**2);\n        }\n    }\n\n    function showBalance(address _user) public returns (uint256) {\n        uint256 currentMinute = getUserSecs(_user) / 60;\n        User memory user = users[_user];\n\n        //If the ammount staked is less, we already know they lost so show their balance, but we only show it once they pass the mins\n        if (\n            user.amountStaked < user.previousBalance &&\n            currentMinute >= user.timeGuess\n        ) {\n            return user.amountStaked;\n        }\n\n        uint256 amount;\n        if (currentMinute <= 20) {\n            amount = (((((currentMinute**2 * decimals**2) / 16) +\n                100 *\n                decimals**2) * user.previousBalance) / (100 * decimals**2));\n            return amount < user.amountStaked ? amount : user.amountStaked;\n        }\n        if (currentMinute <= 40) {\n            amount =\n                ((((currentMinute**2 * decimals**2) / 7) + 68 * decimals**2) *\n                    user.previousBalance) /\n                (100 * decimals**2);\n            return amount < user.amountStaked ? amount : user.amountStaked;\n        }\n\n        if (currentMinute <= 60) {\n            amount =\n                ((\n                    (((currentMinute**2 * decimals**2) / 2) - 503 * decimals**2)\n                ) * user.previousBalance) /\n                (100 * decimals**2);\n            return amount < user.amountStaked ? amount : user.amountStaked;\n        }\n\n        //they already won so return this\n        return user.amountStaked;\n    }\n\n    // function testCalculateEarnings(uint256 _timeGuess, uint256 _random)\n    //     public\n    //     returns (uint256)\n    // {\n    //     uint256 random = _random;\n    //     User memory user = users[msg.sender];\n\n    //     //Was the guess over? return only the percent returned value\n    //     if (user.startDate + (_timeGuess) > user.startDate + random) {\n    //         emit Calculating(\n    //             msg.sender,\n    //             (user.amountStaked * decimals) / returnRate\n    //         );\n    //         return (user.amountStaked * decimals) / returnRate;\n    //     }\n    //     emit Say(\"didn't think you were rugged\");\n    //     //You guessed before, so now we calculate your earnings\n\n    //     if (_timeGuess <= 30) {\n    //         return\n    //             user.amountStaked +\n    //             (2 * user.amountStaked * _timeGuess) /\n    //             div30;\n    //     }\n\n    //     return ((user.amountStaked * _timeGuess**2) / div60) - 65;\n    // }\n\n    // function setUser(uint256 _amountStaked, uint256 _previousBalance) public {\n    //     users[msg.sender] = User(\n    //         _amountStaked,\n    //         _previousBalance,\n    //         block.timestamp\n    //     );\n    // }\n\n    function setFarmOpen() public onlyOwner {\n        require(speculateAllowed == false, \"Farm is already open\");\n        speculateAllowed = true;\n    }\n\n    function setFarmClosed() public onlyOwner {\n        require(speculateAllowed == true, \"Farm is already closed\");\n        speculateAllowed = false;\n    }\n\n    //Send in if wantingthem to have 10% write 10 or them having 20% write 20\n    function setReturnRate(uint256 _rate) public onlyOwner {\n        returnRate = _rate * decimals;\n    }\n\n    function setBurnMin(address _user) internal returns (uint256) {\n        nonce += 2;\n\n        //The minus 60 then plus 60 so that the rug min is never <1 min...\n        //-60 would make us mod by 59 mins, so the number could be 0-59,\n        //+61 would make the number be betweem 1-60\n        uint256 random = ((\n            uint256(\n                keccak256(\n                    abi.encodePacked(block.timestamp, address(_user), nonce)\n                )\n            )\n        ) % (timeGap - 60)) + 61; //This will give the exact second.\n\n        randomNumber = random; //testing purposes\n        return random;\n    }\n\n    function setTeam(address _team) public onlyOwner {\n        team = _team;\n    }\n\n    function canClaim() public view returns (bool) {\n        if (block.timestamp - users[msg.sender].startDate >= timeGap) {\n            return true;\n        }\n\n        return false;\n    }\n\n    function getUserPreviousBalance(address _user)\n        public\n        view\n        returns (uint256)\n    {\n        return users[_user].previousBalance;\n    }\n\n    function getUserAmountStaked(address _user) public view returns (uint256) {\n        return users[_user].amountStaked;\n    }\n\n    function getUserTimeGuess(address _user) public view returns (uint256) {\n        return users[_user].timeGuess;\n    }\n\n    function getUserSecs(address _user) public view returns (uint256) {\n        return block.timestamp - users[_user].startDate;\n    }\n\n    receive() external payable {\n        emit Received(msg.sender, msg.value);\n    }\n}\n","sourcePath":"contracts/SpeculateFarm.sol","type":"contract","deployment":{"address":"0x135eaB6A199a580A378F2342Ab78BcAC65D1585D","chainid":"43113","blockHeight":11156756}}