{"abi":[{"inputs":[{"internalType":"address","name":"_stakeToken","type":"address"}],"stateMutability":"payable","type":"constructor","name":"constructor"},{"anonymous":false,"inputs":[{"indexed":false,"internalType":"address","name":"","type":"address"},{"indexed":false,"internalType":"int256","name":"","type":"int256"}],"name":"GainedMoney","type":"event"},{"anonymous":false,"inputs":[{"indexed":false,"internalType":"address","name":"","type":"address"},{"indexed":false,"internalType":"int256","name":"","type":"int256"}],"name":"LostMoney","type":"event"},{"anonymous":false,"inputs":[{"indexed":true,"internalType":"address","name":"previousOwner","type":"address"},{"indexed":true,"internalType":"address","name":"newOwner","type":"address"}],"name":"OwnershipTransferred","type":"event"},{"anonymous":false,"inputs":[{"indexed":false,"internalType":"address","name":"","type":"address"},{"indexed":false,"internalType":"uint256","name":"","type":"uint256"}],"name":"Received","type":"event"},{"inputs":[],"name":"canClaim","outputs":[{"internalType":"bool","name":"","type":"bool"}],"stateMutability":"view","type":"function"},{"inputs":[],"name":"claim","outputs":[],"stateMutability":"nonpayable","type":"function"},{"inputs":[],"name":"decimals","outputs":[{"internalType":"uint256","name":"","type":"uint256"}],"stateMutability":"view","type":"function"},{"inputs":[{"internalType":"address","name":"_user","type":"address"}],"name":"getUserPreviousStake","outputs":[{"internalType":"uint256","name":"","type":"uint256"}],"stateMutability":"view","type":"function"},{"inputs":[{"internalType":"address","name":"_user","type":"address"}],"name":"getUserSecsUntilRebase","outputs":[{"internalType":"uint256","name":"","type":"uint256"}],"stateMutability":"view","type":"function"},{"inputs":[{"internalType":"address","name":"_user","type":"address"}],"name":"getUserStakingBalance","outputs":[{"internalType":"uint256","name":"","type":"uint256"}],"stateMutability":"view","type":"function"},{"inputs":[{"internalType":"address","name":"_user","type":"address"}],"name":"isStaker","outputs":[{"internalType":"bool","name":"","type":"bool"}],"stateMutability":"view","type":"function"},{"inputs":[{"internalType":"uint256","name":"","type":"uint256"}],"name":"negativeYieldToChance","outputs":[{"internalType":"uint256","name":"","type":"uint256"}],"stateMutability":"view","type":"function"},{"inputs":[{"internalType":"uint256","name":"","type":"uint256"}],"name":"negatives","outputs":[{"internalType":"uint256","name":"","type":"uint256"}],"stateMutability":"view","type":"function"},{"inputs":[],"name":"owner","outputs":[{"internalType":"address","name":"","type":"address"}],"stateMutability":"view","type":"function"},{"inputs":[{"internalType":"uint256","name":"","type":"uint256"}],"name":"positiveYieldToChance","outputs":[{"internalType":"uint256","name":"","type":"uint256"}],"stateMutability":"view","type":"function"},{"inputs":[{"internalType":"uint256","name":"","type":"uint256"}],"name":"positives","outputs":[{"internalType":"uint256","name":"","type":"uint256"}],"stateMutability":"view","type":"function"},{"inputs":[],"name":"randomNumber","outputs":[{"internalType":"uint256","name":"","type":"uint256"}],"stateMutability":"view","type":"function"},{"inputs":[],"name":"renounceOwnership","outputs":[],"stateMutability":"nonpayable","type":"function"},{"inputs":[],"name":"riskAllowed","outputs":[{"internalType":"bool","name":"","type":"bool"}],"stateMutability":"view","type":"function"},{"inputs":[],"name":"setFarmClosed","outputs":[],"stateMutability":"nonpayable","type":"function"},{"inputs":[],"name":"setFarmOpen","outputs":[],"stateMutability":"nonpayable","type":"function"},{"inputs":[{"internalType":"uint256","name":"_firstValue","type":"uint256"},{"internalType":"uint256","name":"_firstChance","type":"uint256"},{"internalType":"uint256","name":"_secondValue","type":"uint256"},{"internalType":"uint256","name":"_secondChance","type":"uint256"},{"internalType":"uint256","name":"_thirdValue","type":"uint256"},{"internalType":"uint256","name":"_thirdChance","type":"uint256"}],"name":"setNegatives","outputs":[],"stateMutability":"nonpayable","type":"function"},{"inputs":[{"internalType":"uint256","name":"_firstValue","type":"uint256"},{"internalType":"uint256","name":"_firstChance","type":"uint256"},{"internalType":"uint256","name":"_secondValue","type":"uint256"},{"internalType":"uint256","name":"_secondChance","type":"uint256"},{"internalType":"uint256","name":"_thirdValue","type":"uint256"},{"internalType":"uint256","name":"_thirdChance","type":"uint256"}],"name":"setPositives","outputs":[],"stateMutability":"nonpayable","type":"function"},{"inputs":[{"internalType":"address","name":"_team","type":"address"}],"name":"setTeam","outputs":[],"stateMutability":"nonpayable","type":"function"},{"inputs":[{"internalType":"uint256","name":"_amount","type":"uint256"}],"name":"stake","outputs":[],"stateMutability":"nonpayable","type":"function"},{"inputs":[],"name":"stakeToken","outputs":[{"internalType":"contract StakeToken","name":"","type":"address"}],"stateMutability":"view","type":"function"},{"inputs":[],"name":"team","outputs":[{"internalType":"address","name":"","type":"address"}],"stateMutability":"view","type":"function"},{"inputs":[],"name":"timeGap","outputs":[{"internalType":"uint256","name":"","type":"uint256"}],"stateMutability":"view","type":"function"},{"inputs":[{"internalType":"address","name":"newOwner","type":"address"}],"name":"transferOwnership","outputs":[],"stateMutability":"nonpayable","type":"function"},{"inputs":[{"internalType":"uint256","name":"_amount","type":"uint256"}],"name":"unstake","outputs":[],"stateMutability":"nonpayable","type":"function"},{"inputs":[{"internalType":"address","name":"","type":"address"}],"name":"users","outputs":[{"internalType":"uint256","name":"amountStaked","type":"uint256"},{"internalType":"uint256","name":"previousBalance","type":"uint256"},{"internalType":"uint256","name":"startDate","type":"uint256"}],"stateMutability":"view","type":"function"},{"stateMutability":"payable","type":"receive"}],"bytecode":"6080604052600d8055612710600e5560405162001e8238038062001e82833981016040819052620000309162000641565b6200003b3362000155565b600b80546001600160a01b0319166001600160a01b038316179055600e54620000c1906200006b90600162000673565b600e546200007b90603262000673565b600e546200008b90600a62000673565b600e546200009b90600a62000673565b600e54620000ab90606462000673565b600e54620000bb90600162000673565b620001a5565b6200013a600e54600a620000d6919062000673565b600e54620000e690600562000673565b600e54620000f690601e62000673565b600e546200010690600162000673565b600e546200011690605a62000673565b600a600e54620001279190620006a1565b6200013490600162000673565b620003fe565b5062015180600c556000805460ff60a01b19169055620006c4565b600080546001600160a01b038381166001600160a01b0319831681178455604051919092169283917f8be0079c531659141344cd1fd0a4f28419497f9722a3daafe3b4186f6b6457e09190a35050565b6000546001600160a01b03163314620001f45760405162461bcd60e51b8152602060048201819052602482015260008051602062001e2283398151915260448201526064015b60405180910390fd5b60008611620002465760405162461bcd60e51b815260206004820152601e60248201527f506f736974697665204f7574636f6d65732063616e2774206265203c203000006044820152606401620001eb565b60008411620002985760405162461bcd60e51b815260206004820152601f60248201527f506f73697469766573204f7574636f6d65732063616e2774206265203c2030006044820152606401620001eb565b60008211620002ea5760405162461bcd60e51b815260206004820152601f60248201527f506f73697469766573204f7574636f6d65732063616e2774206265203c2030006044820152606401620001eb565b60008511620003355760405162461bcd60e51b8152602060048201526021602482015260008051602062001e028339815191526044820152600360fc1b6064820152608401620001eb565b60008311620003805760405162461bcd60e51b8152602060048201526021602482015260008051602062001e028339815191526044820152600360fc1b6064820152608401620001eb565b60008111620003cb5760405162461bcd60e51b8152602060048201526021602482015260008051602062001e028339815191526044820152600360fc1b6064820152608401620001eb565b60058690556006849055600782905560009586526001602052604080872095909555928552838520919091558352912055565b6000546001600160a01b03163314620004495760405162461bcd60e51b8152602060048201819052602482015260008051602062001e228339815191526044820152606401620001eb565b600086116200049f5760405162461bcd60e51b815260206004820152603b602482015260008051602062001e62833981519152604482015260008051602062001e428339815191526064820152608401620001eb565b60008411620004f55760405162461bcd60e51b815260206004820152603b602482015260008051602062001e62833981519152604482015260008051602062001e428339815191526064820152608401620001eb565b600082116200054b5760405162461bcd60e51b815260206004820152603b602482015260008051602062001e62833981519152604482015260008051602062001e428339815191526064820152608401620001eb565b600085116200058c5760405162461bcd60e51b8152602060048201819052602482015260008051602062001de28339815191526044820152606401620001eb565b60008311620005cd5760405162461bcd60e51b8152602060048201819052602482015260008051602062001de28339815191526044820152606401620001eb565b600081116200060e5760405162461bcd60e51b8152602060048201819052602482015260008051602062001de28339815191526044820152606401620001eb565b60088690556009849055600a82905560009586526002602052604080872095909555928552838520919091558352912055565b6000602082840312156200065457600080fd5b81516001600160a01b03811681146200066c57600080fd5b9392505050565b60008160001904831182151516156200069c57634e487b7160e01b600052601160045260246000fd5b500290565b600082620006bf57634e487b7160e01b600052601260045260246000fd5b500490565b61170e80620006d46000396000f3fe6080604052600436106101a05760003560e01c806385f2aef2116100ec578063c484f94b1161008a578063d36e062711610064578063d36e06271461051b578063db21730d14610554578063dd5dd8f214610575578063f2fde38b1461058b57600080fd5b8063c484f94b146104c3578063ca7b0c24146104f0578063ccbac9f51461050557600080fd5b8063930ef735116100c6578063930ef73514610417578063a694fc3a1461042c578063a87430ba1461044c578063b3b35e54146104a357600080fd5b806385f2aef2146103ac5780638da5cb5b146103cc57806390c07fe0146103ea57600080fd5b80634e71d92d116101595780636dc7a627116101335780636dc7a627146103325780636f1e853314610357578063715018a6146103775780637f1d6c5f1461038c57600080fd5b80634e71d92d146102c557806351ed6a30146102da5780636b2b01561461031257600080fd5b8063095cf5c6146101e457806323fc91e4146102065780632e17de781461024f578063313ce5671461026f57806347fce952146102855780634b3da2f2146102a557600080fd5b366101df57604080513381523460208201527f88a5966d370b9919b20f3e2c13ff65706f196a4e32cc2c12bf57088f88525874910160405180910390a1005b600080fd5b3480156101f057600080fd5b506102046101ff36600461137a565b6105ab565b005b34801561021257600080fd5b5061023c61022136600461137a565b6001600160a01b031660009081526004602052604090205490565b6040519081526020015b60405180910390f35b34801561025b57600080fd5b5061020461026a3660046113aa565b610600565b34801561027b57600080fd5b5061023c600e5481565b34801561029157600080fd5b506102046102a03660046113c3565b6107fe565b3480156102b157600080fd5b5061023c6102c03660046113aa565b6109ab565b3480156102d157600080fd5b506102046109c2565b3480156102e657600080fd5b50600b546102fa906001600160a01b031681565b6040516001600160a01b039091168152602001610246565b34801561031e57600080fd5b5061020461032d3660046113c3565b610a38565b34801561033e57600080fd5b50610347610b55565b6040519015158152602001610246565b34801561036357600080fd5b5061034761037236600461137a565b610b89565b34801561038357600080fd5b50610204610bb6565b34801561039857600080fd5b5061023c6103a73660046113aa565b610bea565b3480156103b857600080fd5b506003546102fa906001600160a01b031681565b3480156103d857600080fd5b506000546001600160a01b03166102fa565b3480156103f657600080fd5b5061023c6104053660046113aa565b60016020526000908152604090205481565b34801561042357600080fd5b50610204610bfa565b34801561043857600080fd5b506102046104473660046113aa565b610c33565b34801561045857600080fd5b5061048861046736600461137a565b60046020526000908152604090208054600182015460029092015490919083565b60408051938452602084019290925290820152606001610246565b3480156104af57600080fd5b5061023c6104be36600461137a565b610e84565b3480156104cf57600080fd5b5061023c6104de3660046113aa565b60026020526000908152604090205481565b3480156104fc57600080fd5b50610204610ef0565b34801561051157600080fd5b5061023c600f5481565b34801561052757600080fd5b5061023c61053636600461137a565b6001600160a01b031660009081526004602052604090206001015490565b34801561056057600080fd5b5060005461034790600160a01b900460ff1681565b34801561058157600080fd5b5061023c600c5481565b34801561059757600080fd5b506102046105a636600461137a565b610f2f565b6000546001600160a01b031633146105de5760405162461bcd60e51b81526004016105d590611406565b60405180910390fd5b600380546001600160a01b0319166001600160a01b0392909216919091179055565b600054600160a01b900460ff16151560011461062e5760405162461bcd60e51b81526004016105d59061143b565b600081116106975760405162461bcd60e51b815260206004820152603060248201527f416d6f756e7420746f20626520756e7374616b6564206e6565647320746f206260448201526f0652067726561746572207468616e20360841b60648201526084016105d5565b61069f610b55565b156106ac576106ac6109c2565b3360009081526004602090815260409182902082516060810184528154808252600183015493820193909352600290910154928101929092528083111561074b5760405162461bcd60e51b815260206004820152602d60248201527f43616e277420756e7374616b65206d6f7265207468616e20796f75206861766560448201526c161031b432b1b59030b3b0b4b760991b60648201526084016105d5565b828260000181815161075d9190611495565b90525081516020830152600b546040516340c10f1960e01b8152336004820152602481018590526001600160a01b03909116906340c10f1990604401600060405180830381600087803b1580156107b357600080fd5b505af11580156107c7573d6000803e3d6000fd5b5050426040808601918252336000908152600460209081529190208651815595015160018601555160029094019390935550505050565b6000546001600160a01b031633146108285760405162461bcd60e51b81526004016105d590611406565b600086116108785760405162461bcd60e51b815260206004820152601e60248201527f506f736974697665204f7574636f6d65732063616e2774206265203c2030000060448201526064016105d5565b600084116108c85760405162461bcd60e51b815260206004820152601f60248201527f506f73697469766573204f7574636f6d65732063616e2774206265203c20300060448201526064016105d5565b600082116109185760405162461bcd60e51b815260206004820152601f60248201527f506f73697469766573204f7574636f6d65732063616e2774206265203c20300060448201526064016105d5565b600085116109385760405162461bcd60e51b81526004016105d5906114ac565b600083116109585760405162461bcd60e51b81526004016105d5906114ac565b600081116109785760405162461bcd60e51b81526004016105d5906114ac565b60058690556006849055600782905560009586526001602052604080872095909555928552838520919091558352912055565b600881600381106109bb57600080fd5b0154905081565b600c54336000908152600460205260409020600201546109e29042611495565b1015610a005760405162461bcd60e51b81526004016105d590611503565b600054600160a01b900460ff161515600114610a2e5760405162461bcd60e51b81526004016105d59061143b565b610a36610fca565b565b6000546001600160a01b03163314610a625760405162461bcd60e51b81526004016105d590611406565b60008611610a825760405162461bcd60e51b81526004016105d590611560565b60008411610aa25760405162461bcd60e51b81526004016105d590611560565b60008211610ac25760405162461bcd60e51b81526004016105d590611560565b60008511610ae25760405162461bcd60e51b81526004016105d5906115bd565b60008311610b025760405162461bcd60e51b81526004016105d5906115bd565b60008111610b225760405162461bcd60e51b81526004016105d5906115bd565b60088690556009849055600a82905560009586526002602052604080872095909555928552838520919091558352912055565b600c5433600090815260046020526040812060020154909190610b789042611495565b10610b835750600190565b50600090565b6001600160a01b038116600090815260046020526040812054610bad576000610bb0565b60015b92915050565b6000546001600160a01b03163314610be05760405162461bcd60e51b81526004016105d590611406565b610a366000611287565b600581600381106109bb57600080fd5b6000546001600160a01b03163314610c245760405162461bcd60e51b81526004016105d590611406565b6000805460ff60a01b19169055565b600054600160a01b900460ff161515600114610c615760405162461bcd60e51b81526004016105d59061143b565b60008111610cc85760405162461bcd60e51b815260206004820152602e60248201527f416d6f756e7420746f206265207374616b6564206e6565647320746f2062652060448201526d067726561746572207468616e20360941b60648201526084016105d5565b600b546040516370a0823160e01b81523360048201526001600160a01b03909116906370a0823190602401602060405180830381865afa158015610d10573d6000803e3d6000fd5b505050506040513d601f19601f82011682018060405250810190610d3491906115f2565b811115610d835760405162461bcd60e51b815260206004820152601e60248201527f43616e2774207374616b65206d6f7265207468616e20796f752068617665000060448201526064016105d5565b336000908152600460209081526040918290208251606080820185528254825260018301549382019390935260029091015481840152825191820190925281518190610dd090859061160b565b8152602001838360200151610de5919061160b565b81524260209182015233600081815260048084526040918290208551815593850151600185015584820151600290940193909355600b549051632770a7eb60e21b815292830191909152602482018590529192506001600160a01b0390911690639dc29fac90604401600060405180830381600087803b158015610e6857600080fd5b505af1158015610e7c573d6000803e3d6000fd5b505050505050565b600c546001600160a01b038216600090815260046020526040812060020154909190610eb09042611495565b11610ee8576001600160a01b038216600090815260046020526040902060020154610edb9042611495565b600c54610bb09190611495565b506000919050565b6000546001600160a01b03163314610f1a5760405162461bcd60e51b81526004016105d590611406565b6000805460ff60a01b1916600160a01b179055565b6000546001600160a01b03163314610f595760405162461bcd60e51b81526004016105d590611406565b6001600160a01b038116610fbe5760405162461bcd60e51b815260206004820152602660248201527f4f776e61626c653a206e6577206f776e657220697320746865207a65726f206160448201526564647265737360d01b60648201526084016105d5565b610fc781611287565b50565b600c5433600090815260046020526040902060020154610fea9042611495565b10156110085760405162461bcd60e51b81526004016105d590611503565b600054600160a01b900460ff1615156001146110365760405162461bcd60e51b81526004016105d59061143b565b33600090815260046020526040812054905b60038110156110cc57600060058260038110611066576110666114ed565b01546000818152600160205260409020549091506110859033906112d7565b156110b957600e54611098906064611623565b6110a28285611623565b6110ac9190611658565b6110b6908461160b565b92505b50806110c48161166c565b915050611048565b5060005b60038110156111df576000600882600381106110ee576110ee6114ed565b015460008181526002602052604090205490915061110d9033906112d7565b156111cc576000600e5460646111239190611623565b61112d8386611623565b6111379190611658565b600b546003549192506001600160a01b03908116916340c10f19911661115e600a85611658565b6040516001600160e01b031960e085901b1681526001600160a01b0390921660048301526024820152604401600060405180830381600087803b1580156111a457600080fd5b505af11580156111b8573d6000803e3d6000fd5b5050505080846111c89190611495565b9350505b50806111d78161166c565b9150506110d0565b50336000908152600460205260408120828155426002820155600101546112069083611685565b90506000811261124a5760408051338152602081018390527f848c68ef6385d4b4a906cb326ea769c674a72bd79a4f9b2d494a91b50dd433cc910160405180910390a15b60408051338152602081018390527f453949bd7ca7338a4cf587c83bc69ceb779d96b0315e71c0f8f24e02480c6ed3910160405180910390a15050565b600080546001600160a01b038381166001600160a01b0319831681178455604051919092169283917f8be0079c531659141344cd1fd0a4f28419497f9722a3daafe3b4186f6b6457e09190a35050565b60006002600d60008282546112ec919061160b565b9091555050600e54600090611302906064611623565b600d54604080514260208201526bffffffffffffffffffffffff19606089901b169181019190915260548101919091526074016040516020818303038152906040528051906020012060001c61135891906116c4565b600f8190559050828111611370576001915050610bb0565b5060009392505050565b60006020828403121561138c57600080fd5b81356001600160a01b03811681146113a357600080fd5b9392505050565b6000602082840312156113bc57600080fd5b5035919050565b60008060008060008060c087890312156113dc57600080fd5b505084359660208601359650604086013595606081013595506080810135945060a0013592509050565b6020808252818101527f4f776e61626c653a2063616c6c6572206973206e6f7420746865206f776e6572604082015260600190565b60208082526024908201527f5374616b696e67206973206e6f7420616c6c6f77656420617420746865206d6f6040820152631b595b9d60e21b606082015260800190565b634e487b7160e01b600052601160045260246000fd5b6000828210156114a7576114a761147f565b500390565b60208082526021908201527f506f73697469766573204c696b656c686f6f64732063616e2774206265203c206040820152600360fc1b606082015260800190565b634e487b7160e01b600052603260045260246000fd5b6020808252603c908201527f596f75206861766520746f2077616974206c6f6e67657220746f20626520616260408201527f6c6520746f20436c61696d2f5265696e766573742f556e7374616b6500000000606082015260800190565b6020808252603b908201527f4e65676174697665204f7574636f6d65732063616e2774206265206e6565642060408201527f746f20626520736574206120706f7374697665206e756d626572730000000000606082015260800190565b6020808252818101527f4e65676174697665204c696b656c686f6f64732063616e2774206265203c2030604082015260600190565b60006020828403121561160457600080fd5b5051919050565b6000821982111561161e5761161e61147f565b500190565b600081600019048311821515161561163d5761163d61147f565b500290565b634e487b7160e01b600052601260045260246000fd5b60008261166757611667611642565b500490565b60006001820161167e5761167e61147f565b5060010190565b60008083128015600160ff1b8501841216156116a3576116a361147f565b6001600160ff1b03840183138116156116be576116be61147f565b50500390565b6000826116d3576116d3611642565b50069056fea26469706673582212205d0e81fd86f2a85ee5019280f03d328907bdeb7ceb9852b81cc9322a96de6d3c64736f6c634300080d00334e65676174697665204c696b656c686f6f64732063616e2774206265203c2030506f73697469766573204c696b656c686f6f64732063616e2774206265203c204f776e61626c653a2063616c6c6572206973206e6f7420746865206f776e6572746f20626520736574206120706f7374697665206e756d6265727300000000004e65676174697665204f7574636f6d65732063616e2774206265206e65656420","bytecodeSha1":"da39a3ee5e6b4b0d3255bfef95601890afd80709","compiler":{"evm_version":"istanbul","optimizer":{"enabled":true,"runs":200},"version":"0.8.13+commit.abaa5c0e"},"contractName":"RiskFarm","language":"Solidity","natspec":{"kind":"dev","methods":{"owner()":{"details":"Returns the address of the current owner."},"renounceOwnership()":{"details":"Leaves the contract without owner. It will not be possible to call `onlyOwner` functions anymore. Can only be called by the current owner. NOTE: Renouncing ownership will leave the contract without an owner, thereby removing any functionality that is only available to the owner."},"transferOwnership(address)":{"details":"Transfers ownership of the contract to a new account (`newOwner`). Can only be called by the current owner."}},"version":1},"opcodes":"PUSH1 0x80 PUSH1 0x40 MSTORE PUSH1 0x4 CALLDATASIZE LT PUSH2 0x1A0 JUMPI PUSH1 0x0 CALLDATALOAD PUSH1 0xE0 SHR DUP1 PUSH4 0x85F2AEF2 GT PUSH2 0xEC JUMPI DUP1 PUSH4 0xC484F94B GT PUSH2 0x8A JUMPI DUP1 PUSH4 0xD36E0627 GT PUSH2 0x64 JUMPI DUP1 PUSH4 0xD36E0627 EQ PUSH2 0x51B JUMPI DUP1 PUSH4 0xDB21730D EQ PUSH2 0x554 JUMPI DUP1 PUSH4 0xDD5DD8F2 EQ PUSH2 0x575 JUMPI DUP1 PUSH4 0xF2FDE38B EQ PUSH2 0x58B JUMPI PUSH1 0x0 DUP1 REVERT JUMPDEST DUP1 PUSH4 0xC484F94B EQ PUSH2 0x4C3 JUMPI DUP1 PUSH4 0xCA7B0C24 EQ PUSH2 0x4F0 JUMPI DUP1 PUSH4 0xCCBAC9F5 EQ PUSH2 0x505 JUMPI PUSH1 0x0 DUP1 REVERT JUMPDEST DUP1 PUSH4 0x930EF735 GT PUSH2 0xC6 JUMPI DUP1 PUSH4 0x930EF735 EQ PUSH2 0x417 JUMPI DUP1 PUSH4 0xA694FC3A EQ PUSH2 0x42C JUMPI DUP1 PUSH4 0xA87430BA EQ PUSH2 0x44C JUMPI DUP1 PUSH4 0xB3B35E54 EQ PUSH2 0x4A3 JUMPI PUSH1 0x0 DUP1 REVERT JUMPDEST DUP1 PUSH4 0x85F2AEF2 EQ PUSH2 0x3AC JUMPI DUP1 PUSH4 0x8DA5CB5B EQ PUSH2 0x3CC JUMPI DUP1 PUSH4 0x90C07FE0 EQ PUSH2 0x3EA JUMPI PUSH1 0x0 DUP1 REVERT JUMPDEST DUP1 PUSH4 0x4E71D92D GT PUSH2 0x159 JUMPI DUP1 PUSH4 0x6DC7A627 GT PUSH2 0x133 JUMPI DUP1 PUSH4 0x6DC7A627 EQ PUSH2 0x332 JUMPI DUP1 PUSH4 0x6F1E8533 EQ PUSH2 0x357 JUMPI DUP1 PUSH4 0x715018A6 EQ PUSH2 0x377 JUMPI DUP1 PUSH4 0x7F1D6C5F EQ PUSH2 0x38C JUMPI PUSH1 0x0 DUP1 REVERT JUMPDEST DUP1 PUSH4 0x4E71D92D EQ PUSH2 0x2C5 JUMPI DUP1 PUSH4 0x51ED6A30 EQ PUSH2 0x2DA JUMPI DUP1 PUSH4 0x6B2B0156 EQ PUSH2 0x312 JUMPI PUSH1 0x0 DUP1 REVERT JUMPDEST DUP1 PUSH4 0x95CF5C6 EQ PUSH2 0x1E4 JUMPI DUP1 PUSH4 0x23FC91E4 EQ PUSH2 0x206 JUMPI DUP1 PUSH4 0x2E17DE78 EQ PUSH2 0x24F JUMPI DUP1 PUSH4 0x313CE567 EQ PUSH2 0x26F JUMPI DUP1 PUSH4 0x47FCE952 EQ PUSH2 0x285 JUMPI DUP1 PUSH4 0x4B3DA2F2 EQ PUSH2 0x2A5 JUMPI PUSH1 0x0 DUP1 REVERT JUMPDEST CALLDATASIZE PUSH2 0x1DF JUMPI PUSH1 0x40 DUP1 MLOAD CALLER DUP2 MSTORE CALLVALUE PUSH1 0x20 DUP3 ADD MSTORE PUSH32 0x88A5966D370B9919B20F3E2C13FF65706F196A4E32CC2C12BF57088F88525874 SWAP2 ADD PUSH1 0x40 MLOAD DUP1 SWAP2 SUB SWAP1 LOG1 STOP JUMPDEST PUSH1 0x0 DUP1 REVERT JUMPDEST CALLVALUE DUP1 ISZERO PUSH2 0x1F0 JUMPI PUSH1 0x0 DUP1 REVERT JUMPDEST POP PUSH2 0x204 PUSH2 0x1FF CALLDATASIZE PUSH1 0x4 PUSH2 0x137A JUMP JUMPDEST PUSH2 0x5AB JUMP JUMPDEST STOP JUMPDEST CALLVALUE DUP1 ISZERO PUSH2 0x212 JUMPI PUSH1 0x0 DUP1 REVERT JUMPDEST POP PUSH2 0x23C PUSH2 0x221 CALLDATASIZE PUSH1 0x4 PUSH2 0x137A JUMP JUMPDEST PUSH1 0x1 PUSH1 0x1 PUSH1 0xA0 SHL SUB AND PUSH1 0x0 SWAP1 DUP2 MSTORE PUSH1 0x4 PUSH1 0x20 MSTORE PUSH1 0x40 SWAP1 KECCAK256 SLOAD SWAP1 JUMP JUMPDEST PUSH1 0x40 MLOAD SWAP1 DUP2 MSTORE PUSH1 0x20 ADD JUMPDEST PUSH1 0x40 MLOAD DUP1 SWAP2 SUB SWAP1 RETURN JUMPDEST CALLVALUE DUP1 ISZERO PUSH2 0x25B JUMPI PUSH1 0x0 DUP1 REVERT JUMPDEST POP PUSH2 0x204 PUSH2 0x26A CALLDATASIZE PUSH1 0x4 PUSH2 0x13AA JUMP JUMPDEST PUSH2 0x600 JUMP JUMPDEST CALLVALUE DUP1 ISZERO PUSH2 0x27B JUMPI PUSH1 0x0 DUP1 REVERT JUMPDEST POP PUSH2 0x23C PUSH1 0xE SLOAD DUP2 JUMP JUMPDEST CALLVALUE DUP1 ISZERO PUSH2 0x291 JUMPI PUSH1 0x0 DUP1 REVERT JUMPDEST POP PUSH2 0x204 PUSH2 0x2A0 CALLDATASIZE PUSH1 0x4 PUSH2 0x13C3 JUMP JUMPDEST PUSH2 0x7FE JUMP JUMPDEST CALLVALUE DUP1 ISZERO PUSH2 0x2B1 JUMPI PUSH1 0x0 DUP1 REVERT JUMPDEST POP PUSH2 0x23C PUSH2 0x2C0 CALLDATASIZE PUSH1 0x4 PUSH2 0x13AA JUMP JUMPDEST PUSH2 0x9AB JUMP JUMPDEST CALLVALUE DUP1 ISZERO PUSH2 0x2D1 JUMPI PUSH1 0x0 DUP1 REVERT JUMPDEST POP PUSH2 0x204 PUSH2 0x9C2 JUMP JUMPDEST CALLVALUE DUP1 ISZERO PUSH2 0x2E6 JUMPI PUSH1 0x0 DUP1 REVERT JUMPDEST POP PUSH1 0xB SLOAD PUSH2 0x2FA SWAP1 PUSH1 0x1 PUSH1 0x1 PUSH1 0xA0 SHL SUB AND DUP2 JUMP JUMPDEST PUSH1 0x40 MLOAD PUSH1 0x1 PUSH1 0x1 PUSH1 0xA0 SHL SUB SWAP1 SWAP2 AND DUP2 MSTORE PUSH1 0x20 ADD PUSH2 0x246 JUMP JUMPDEST CALLVALUE DUP1 ISZERO PUSH2 0x31E JUMPI PUSH1 0x0 DUP1 REVERT JUMPDEST POP PUSH2 0x204 PUSH2 0x32D CALLDATASIZE PUSH1 0x4 PUSH2 0x13C3 JUMP JUMPDEST PUSH2 0xA38 JUMP JUMPDEST CALLVALUE DUP1 ISZERO PUSH2 0x33E JUMPI PUSH1 0x0 DUP1 REVERT JUMPDEST POP PUSH2 0x347 PUSH2 0xB55 JUMP JUMPDEST PUSH1 0x40 MLOAD SWAP1 ISZERO ISZERO DUP2 MSTORE PUSH1 0x20 ADD PUSH2 0x246 JUMP JUMPDEST CALLVALUE DUP1 ISZERO PUSH2 0x363 JUMPI PUSH1 0x0 DUP1 REVERT JUMPDEST POP PUSH2 0x347 PUSH2 0x372 CALLDATASIZE PUSH1 0x4 PUSH2 0x137A JUMP JUMPDEST PUSH2 0xB89 JUMP JUMPDEST CALLVALUE DUP1 ISZERO PUSH2 0x383 JUMPI PUSH1 0x0 DUP1 REVERT JUMPDEST POP PUSH2 0x204 PUSH2 0xBB6 JUMP JUMPDEST CALLVALUE DUP1 ISZERO PUSH2 0x398 JUMPI PUSH1 0x0 DUP1 REVERT JUMPDEST POP PUSH2 0x23C PUSH2 0x3A7 CALLDATASIZE PUSH1 0x4 PUSH2 0x13AA JUMP JUMPDEST PUSH2 0xBEA JUMP JUMPDEST CALLVALUE DUP1 ISZERO PUSH2 0x3B8 JUMPI PUSH1 0x0 DUP1 REVERT JUMPDEST POP PUSH1 0x3 SLOAD PUSH2 0x2FA SWAP1 PUSH1 0x1 PUSH1 0x1 PUSH1 0xA0 SHL SUB AND DUP2 JUMP JUMPDEST CALLVALUE DUP1 ISZERO PUSH2 0x3D8 JUMPI PUSH1 0x0 DUP1 REVERT JUMPDEST POP PUSH1 0x0 SLOAD PUSH1 0x1 PUSH1 0x1 PUSH1 0xA0 SHL SUB AND PUSH2 0x2FA JUMP JUMPDEST CALLVALUE DUP1 ISZERO PUSH2 0x3F6 JUMPI PUSH1 0x0 DUP1 REVERT JUMPDEST POP PUSH2 0x23C PUSH2 0x405 CALLDATASIZE PUSH1 0x4 PUSH2 0x13AA JUMP JUMPDEST PUSH1 0x1 PUSH1 0x20 MSTORE PUSH1 0x0 SWAP1 DUP2 MSTORE PUSH1 0x40 SWAP1 KECCAK256 SLOAD DUP2 JUMP JUMPDEST CALLVALUE DUP1 ISZERO PUSH2 0x423 JUMPI PUSH1 0x0 DUP1 REVERT JUMPDEST POP PUSH2 0x204 PUSH2 0xBFA JUMP JUMPDEST CALLVALUE DUP1 ISZERO PUSH2 0x438 JUMPI PUSH1 0x0 DUP1 REVERT JUMPDEST POP PUSH2 0x204 PUSH2 0x447 CALLDATASIZE PUSH1 0x4 PUSH2 0x13AA JUMP JUMPDEST PUSH2 0xC33 JUMP JUMPDEST CALLVALUE DUP1 ISZERO PUSH2 0x458 JUMPI PUSH1 0x0 DUP1 REVERT JUMPDEST POP PUSH2 0x488 PUSH2 0x467 CALLDATASIZE PUSH1 0x4 PUSH2 0x137A JUMP JUMPDEST PUSH1 0x4 PUSH1 0x20 MSTORE PUSH1 0x0 SWAP1 DUP2 MSTORE PUSH1 0x40 SWAP1 KECCAK256 DUP1 SLOAD PUSH1 0x1 DUP3 ADD SLOAD PUSH1 0x2 SWAP1 SWAP3 ADD SLOAD SWAP1 SWAP2 SWAP1 DUP4 JUMP JUMPDEST PUSH1 0x40 DUP1 MLOAD SWAP4 DUP5 MSTORE PUSH1 0x20 DUP5 ADD SWAP3 SWAP1 SWAP3 MSTORE SWAP1 DUP3 ADD MSTORE PUSH1 0x60 ADD PUSH2 0x246 JUMP JUMPDEST CALLVALUE DUP1 ISZERO PUSH2 0x4AF JUMPI PUSH1 0x0 DUP1 REVERT JUMPDEST POP PUSH2 0x23C PUSH2 0x4BE CALLDATASIZE PUSH1 0x4 PUSH2 0x137A JUMP JUMPDEST PUSH2 0xE84 JUMP JUMPDEST CALLVALUE DUP1 ISZERO PUSH2 0x4CF JUMPI PUSH1 0x0 DUP1 REVERT JUMPDEST POP PUSH2 0x23C PUSH2 0x4DE CALLDATASIZE PUSH1 0x4 PUSH2 0x13AA JUMP JUMPDEST PUSH1 0x2 PUSH1 0x20 MSTORE PUSH1 0x0 SWAP1 DUP2 MSTORE PUSH1 0x40 SWAP1 KECCAK256 SLOAD DUP2 JUMP JUMPDEST CALLVALUE DUP1 ISZERO PUSH2 0x4FC JUMPI PUSH1 0x0 DUP1 REVERT JUMPDEST POP PUSH2 0x204 PUSH2 0xEF0 JUMP JUMPDEST CALLVALUE DUP1 ISZERO PUSH2 0x511 JUMPI PUSH1 0x0 DUP1 REVERT JUMPDEST POP PUSH2 0x23C PUSH1 0xF SLOAD DUP2 JUMP JUMPDEST CALLVALUE DUP1 ISZERO PUSH2 0x527 JUMPI PUSH1 0x0 DUP1 REVERT JUMPDEST POP PUSH2 0x23C PUSH2 0x536 CALLDATASIZE PUSH1 0x4 PUSH2 0x137A JUMP JUMPDEST PUSH1 0x1 PUSH1 0x1 PUSH1 0xA0 SHL SUB AND PUSH1 0x0 SWAP1 DUP2 MSTORE PUSH1 0x4 PUSH1 0x20 MSTORE PUSH1 0x40 SWAP1 KECCAK256 PUSH1 0x1 ADD SLOAD SWAP1 JUMP JUMPDEST CALLVALUE DUP1 ISZERO PUSH2 0x560 JUMPI PUSH1 0x0 DUP1 REVERT JUMPDEST POP PUSH1 0x0 SLOAD PUSH2 0x347 SWAP1 PUSH1 0x1 PUSH1 0xA0 SHL SWAP1 DIV PUSH1 0xFF AND DUP2 JUMP JUMPDEST CALLVALUE DUP1 ISZERO PUSH2 0x581 JUMPI PUSH1 0x0 DUP1 REVERT JUMPDEST POP PUSH2 0x23C PUSH1 0xC SLOAD DUP2 JUMP JUMPDEST CALLVALUE DUP1 ISZERO PUSH2 0x597 JUMPI PUSH1 0x0 DUP1 REVERT JUMPDEST POP PUSH2 0x204 PUSH2 0x5A6 CALLDATASIZE PUSH1 0x4 PUSH2 0x137A JUMP JUMPDEST PUSH2 0xF2F JUMP JUMPDEST PUSH1 0x0 SLOAD PUSH1 0x1 PUSH1 0x1 PUSH1 0xA0 SHL SUB AND CALLER EQ PUSH2 0x5DE JUMPI PUSH1 0x40 MLOAD PUSH3 0x461BCD PUSH1 0xE5 SHL DUP2 MSTORE PUSH1 0x4 ADD PUSH2 0x5D5 SWAP1 PUSH2 0x1406 JUMP JUMPDEST PUSH1 0x40 MLOAD DUP1 SWAP2 SUB SWAP1 REVERT JUMPDEST PUSH1 0x3 DUP1 SLOAD PUSH1 0x1 PUSH1 0x1 PUSH1 0xA0 SHL SUB NOT AND PUSH1 0x1 PUSH1 0x1 PUSH1 0xA0 SHL SUB SWAP3 SWAP1 SWAP3 AND SWAP2 SWAP1 SWAP2 OR SWAP1 SSTORE JUMP JUMPDEST PUSH1 0x0 SLOAD PUSH1 0x1 PUSH1 0xA0 SHL SWAP1 DIV PUSH1 0xFF AND ISZERO ISZERO PUSH1 0x1 EQ PUSH2 0x62E JUMPI PUSH1 0x40 MLOAD PUSH3 0x461BCD PUSH1 0xE5 SHL DUP2 MSTORE PUSH1 0x4 ADD PUSH2 0x5D5 SWAP1 PUSH2 0x143B JUMP JUMPDEST PUSH1 0x0 DUP2 GT PUSH2 0x697 JUMPI PUSH1 0x40 MLOAD PUSH3 0x461BCD PUSH1 0xE5 SHL DUP2 MSTORE PUSH1 0x20 PUSH1 0x4 DUP3 ADD MSTORE PUSH1 0x30 PUSH1 0x24 DUP3 ADD MSTORE PUSH32 0x416D6F756E7420746F20626520756E7374616B6564206E6565647320746F2062 PUSH1 0x44 DUP3 ADD MSTORE PUSH16 0x652067726561746572207468616E203 PUSH1 0x84 SHL PUSH1 0x64 DUP3 ADD MSTORE PUSH1 0x84 ADD PUSH2 0x5D5 JUMP JUMPDEST PUSH2 0x69F PUSH2 0xB55 JUMP JUMPDEST ISZERO PUSH2 0x6AC JUMPI PUSH2 0x6AC PUSH2 0x9C2 JUMP JUMPDEST CALLER PUSH1 0x0 SWAP1 DUP2 MSTORE PUSH1 0x4 PUSH1 0x20 SWAP1 DUP2 MSTORE PUSH1 0x40 SWAP2 DUP3 SWAP1 KECCAK256 DUP3 MLOAD PUSH1 0x60 DUP2 ADD DUP5 MSTORE DUP2 SLOAD DUP1 DUP3 MSTORE PUSH1 0x1 DUP4 ADD SLOAD SWAP4 DUP3 ADD SWAP4 SWAP1 SWAP4 MSTORE PUSH1 0x2 SWAP1 SWAP2 ADD SLOAD SWAP3 DUP2 ADD SWAP3 SWAP1 SWAP3 MSTORE DUP1 DUP4 GT ISZERO PUSH2 0x74B JUMPI PUSH1 0x40 MLOAD PUSH3 0x461BCD PUSH1 0xE5 SHL DUP2 MSTORE PUSH1 0x20 PUSH1 0x4 DUP3 ADD MSTORE PUSH1 0x2D PUSH1 0x24 DUP3 ADD MSTORE PUSH32 0x43616E277420756E7374616B65206D6F7265207468616E20796F752068617665 PUSH1 0x44 DUP3 ADD MSTORE PUSH13 0x161031B432B1B59030B3B0B4B7 PUSH1 0x99 SHL PUSH1 0x64 DUP3 ADD MSTORE PUSH1 0x84 ADD PUSH2 0x5D5 JUMP JUMPDEST DUP3 DUP3 PUSH1 0x0 ADD DUP2 DUP2 MLOAD PUSH2 0x75D SWAP2 SWAP1 PUSH2 0x1495 JUMP JUMPDEST SWAP1 MSTORE POP DUP2 MLOAD PUSH1 0x20 DUP4 ADD MSTORE PUSH1 0xB SLOAD PUSH1 0x40 MLOAD PUSH4 0x40C10F19 PUSH1 0xE0 SHL DUP2 MSTORE CALLER PUSH1 0x4 DUP3 ADD MSTORE PUSH1 0x24 DUP2 ADD DUP6 SWAP1 MSTORE PUSH1 0x1 PUSH1 0x1 PUSH1 0xA0 SHL SUB SWAP1 SWAP2 AND SWAP1 PUSH4 0x40C10F19 SWAP1 PUSH1 0x44 ADD PUSH1 0x0 PUSH1 0x40 MLOAD DUP1 DUP4 SUB DUP2 PUSH1 0x0 DUP8 DUP1 EXTCODESIZE ISZERO DUP1 ISZERO PUSH2 0x7B3 JUMPI PUSH1 0x0 DUP1 REVERT JUMPDEST POP GAS CALL ISZERO DUP1 ISZERO PUSH2 0x7C7 JUMPI RETURNDATASIZE PUSH1 0x0 DUP1 RETURNDATACOPY RETURNDATASIZE PUSH1 0x0 REVERT JUMPDEST POP POP TIMESTAMP PUSH1 0x40 DUP1 DUP7 ADD SWAP2 DUP3 MSTORE CALLER PUSH1 0x0 SWAP1 DUP2 MSTORE PUSH1 0x4 PUSH1 0x20 SWAP1 DUP2 MSTORE SWAP2 SWAP1 KECCAK256 DUP7 MLOAD DUP2 SSTORE SWAP6 ADD MLOAD PUSH1 0x1 DUP7 ADD SSTORE MLOAD PUSH1 0x2 SWAP1 SWAP5 ADD SWAP4 SWAP1 SWAP4 SSTORE POP POP POP POP JUMP JUMPDEST PUSH1 0x0 SLOAD PUSH1 0x1 PUSH1 0x1 PUSH1 0xA0 SHL SUB AND CALLER EQ PUSH2 0x828 JUMPI PUSH1 0x40 MLOAD PUSH3 0x461BCD PUSH1 0xE5 SHL DUP2 MSTORE PUSH1 0x4 ADD PUSH2 0x5D5 SWAP1 PUSH2 0x1406 JUMP JUMPDEST PUSH1 0x0 DUP7 GT PUSH2 0x878 JUMPI PUSH1 0x40 MLOAD PUSH3 0x461BCD PUSH1 0xE5 SHL DUP2 MSTORE PUSH1 0x20 PUSH1 0x4 DUP3 ADD MSTORE PUSH1 0x1E PUSH1 0x24 DUP3 ADD MSTORE PUSH32 0x506F736974697665204F7574636F6D65732063616E2774206265203C20300000 PUSH1 0x44 DUP3 ADD MSTORE PUSH1 0x64 ADD PUSH2 0x5D5 JUMP JUMPDEST PUSH1 0x0 DUP5 GT PUSH2 0x8C8 JUMPI PUSH1 0x40 MLOAD PUSH3 0x461BCD PUSH1 0xE5 SHL DUP2 MSTORE PUSH1 0x20 PUSH1 0x4 DUP3 ADD MSTORE PUSH1 0x1F PUSH1 0x24 DUP3 ADD MSTORE PUSH32 0x506F73697469766573204F7574636F6D65732063616E2774206265203C203000 PUSH1 0x44 DUP3 ADD MSTORE PUSH1 0x64 ADD PUSH2 0x5D5 JUMP JUMPDEST PUSH1 0x0 DUP3 GT PUSH2 0x918 JUMPI PUSH1 0x40 MLOAD PUSH3 0x461BCD PUSH1 0xE5 SHL DUP2 MSTORE PUSH1 0x20 PUSH1 0x4 DUP3 ADD MSTORE PUSH1 0x1F PUSH1 0x24 DUP3 ADD MSTORE PUSH32 0x506F73697469766573204F7574636F6D65732063616E2774206265203C203000 PUSH1 0x44 DUP3 ADD MSTORE PUSH1 0x64 ADD PUSH2 0x5D5 JUMP JUMPDEST PUSH1 0x0 DUP6 GT PUSH2 0x938 JUMPI PUSH1 0x40 MLOAD PUSH3 0x461BCD PUSH1 0xE5 SHL DUP2 MSTORE PUSH1 0x4 ADD PUSH2 0x5D5 SWAP1 PUSH2 0x14AC JUMP JUMPDEST PUSH1 0x0 DUP4 GT PUSH2 0x958 JUMPI PUSH1 0x40 MLOAD PUSH3 0x461BCD PUSH1 0xE5 SHL DUP2 MSTORE PUSH1 0x4 ADD PUSH2 0x5D5 SWAP1 PUSH2 0x14AC JUMP JUMPDEST PUSH1 0x0 DUP2 GT PUSH2 0x978 JUMPI PUSH1 0x40 MLOAD PUSH3 0x461BCD PUSH1 0xE5 SHL DUP2 MSTORE PUSH1 0x4 ADD PUSH2 0x5D5 SWAP1 PUSH2 0x14AC JUMP JUMPDEST PUSH1 0x5 DUP7 SWAP1 SSTORE PUSH1 0x6 DUP5 SWAP1 SSTORE PUSH1 0x7 DUP3 SWAP1 SSTORE PUSH1 0x0 SWAP6 DUP7 MSTORE PUSH1 0x1 PUSH1 0x20 MSTORE PUSH1 0x40 DUP1 DUP8 KECCAK256 SWAP6 SWAP1 SWAP6 SSTORE SWAP3 DUP6 MSTORE DUP4 DUP6 KECCAK256 SWAP2 SWAP1 SWAP2 SSTORE DUP4 MSTORE SWAP2 KECCAK256 SSTORE JUMP JUMPDEST PUSH1 0x8 DUP2 PUSH1 0x3 DUP2 LT PUSH2 0x9BB JUMPI PUSH1 0x0 DUP1 REVERT JUMPDEST ADD SLOAD SWAP1 POP DUP2 JUMP JUMPDEST PUSH1 0xC SLOAD CALLER PUSH1 0x0 SWAP1 DUP2 MSTORE PUSH1 0x4 PUSH1 0x20 MSTORE PUSH1 0x40 SWAP1 KECCAK256 PUSH1 0x2 ADD SLOAD PUSH2 0x9E2 SWAP1 TIMESTAMP PUSH2 0x1495 JUMP JUMPDEST LT ISZERO PUSH2 0xA00 JUMPI PUSH1 0x40 MLOAD PUSH3 0x461BCD PUSH1 0xE5 SHL DUP2 MSTORE PUSH1 0x4 ADD PUSH2 0x5D5 SWAP1 PUSH2 0x1503 JUMP JUMPDEST PUSH1 0x0 SLOAD PUSH1 0x1 PUSH1 0xA0 SHL SWAP1 DIV PUSH1 0xFF AND ISZERO ISZERO PUSH1 0x1 EQ PUSH2 0xA2E JUMPI PUSH1 0x40 MLOAD PUSH3 0x461BCD PUSH1 0xE5 SHL DUP2 MSTORE PUSH1 0x4 ADD PUSH2 0x5D5 SWAP1 PUSH2 0x143B JUMP JUMPDEST PUSH2 0xA36 PUSH2 0xFCA JUMP JUMPDEST JUMP JUMPDEST PUSH1 0x0 SLOAD PUSH1 0x1 PUSH1 0x1 PUSH1 0xA0 SHL SUB AND CALLER EQ PUSH2 0xA62 JUMPI PUSH1 0x40 MLOAD PUSH3 0x461BCD PUSH1 0xE5 SHL DUP2 MSTORE PUSH1 0x4 ADD PUSH2 0x5D5 SWAP1 PUSH2 0x1406 JUMP JUMPDEST PUSH1 0x0 DUP7 GT PUSH2 0xA82 JUMPI PUSH1 0x40 MLOAD PUSH3 0x461BCD PUSH1 0xE5 SHL DUP2 MSTORE PUSH1 0x4 ADD PUSH2 0x5D5 SWAP1 PUSH2 0x1560 JUMP JUMPDEST PUSH1 0x0 DUP5 GT PUSH2 0xAA2 JUMPI PUSH1 0x40 MLOAD PUSH3 0x461BCD PUSH1 0xE5 SHL DUP2 MSTORE PUSH1 0x4 ADD PUSH2 0x5D5 SWAP1 PUSH2 0x1560 JUMP JUMPDEST PUSH1 0x0 DUP3 GT PUSH2 0xAC2 JUMPI PUSH1 0x40 MLOAD PUSH3 0x461BCD PUSH1 0xE5 SHL DUP2 MSTORE PUSH1 0x4 ADD PUSH2 0x5D5 SWAP1 PUSH2 0x1560 JUMP JUMPDEST PUSH1 0x0 DUP6 GT PUSH2 0xAE2 JUMPI PUSH1 0x40 MLOAD PUSH3 0x461BCD PUSH1 0xE5 SHL DUP2 MSTORE PUSH1 0x4 ADD PUSH2 0x5D5 SWAP1 PUSH2 0x15BD JUMP JUMPDEST PUSH1 0x0 DUP4 GT PUSH2 0xB02 JUMPI PUSH1 0x40 MLOAD PUSH3 0x461BCD PUSH1 0xE5 SHL DUP2 MSTORE PUSH1 0x4 ADD PUSH2 0x5D5 SWAP1 PUSH2 0x15BD JUMP JUMPDEST PUSH1 0x0 DUP2 GT PUSH2 0xB22 JUMPI PUSH1 0x40 MLOAD PUSH3 0x461BCD PUSH1 0xE5 SHL DUP2 MSTORE PUSH1 0x4 ADD PUSH2 0x5D5 SWAP1 PUSH2 0x15BD JUMP JUMPDEST PUSH1 0x8 DUP7 SWAP1 SSTORE PUSH1 0x9 DUP5 SWAP1 SSTORE PUSH1 0xA DUP3 SWAP1 SSTORE PUSH1 0x0 SWAP6 DUP7 MSTORE PUSH1 0x2 PUSH1 0x20 MSTORE PUSH1 0x40 DUP1 DUP8 KECCAK256 SWAP6 SWAP1 SWAP6 SSTORE SWAP3 DUP6 MSTORE DUP4 DUP6 KECCAK256 SWAP2 SWAP1 SWAP2 SSTORE DUP4 MSTORE SWAP2 KECCAK256 SSTORE JUMP JUMPDEST PUSH1 0xC SLOAD CALLER PUSH1 0x0 SWAP1 DUP2 MSTORE PUSH1 0x4 PUSH1 0x20 MSTORE PUSH1 0x40 DUP2 KECCAK256 PUSH1 0x2 ADD SLOAD SWAP1 SWAP2 SWAP1 PUSH2 0xB78 SWAP1 TIMESTAMP PUSH2 0x1495 JUMP JUMPDEST LT PUSH2 0xB83 JUMPI POP PUSH1 0x1 SWAP1 JUMP JUMPDEST POP PUSH1 0x0 SWAP1 JUMP JUMPDEST PUSH1 0x1 PUSH1 0x1 PUSH1 0xA0 SHL SUB DUP2 AND PUSH1 0x0 SWAP1 DUP2 MSTORE PUSH1 0x4 PUSH1 0x20 MSTORE PUSH1 0x40 DUP2 KECCAK256 SLOAD PUSH2 0xBAD JUMPI PUSH1 0x0 PUSH2 0xBB0 JUMP JUMPDEST PUSH1 0x1 JUMPDEST SWAP3 SWAP2 POP POP JUMP JUMPDEST PUSH1 0x0 SLOAD PUSH1 0x1 PUSH1 0x1 PUSH1 0xA0 SHL SUB AND CALLER EQ PUSH2 0xBE0 JUMPI PUSH1 0x40 MLOAD PUSH3 0x461BCD PUSH1 0xE5 SHL DUP2 MSTORE PUSH1 0x4 ADD PUSH2 0x5D5 SWAP1 PUSH2 0x1406 JUMP JUMPDEST PUSH2 0xA36 PUSH1 0x0 PUSH2 0x1287 JUMP JUMPDEST PUSH1 0x5 DUP2 PUSH1 0x3 DUP2 LT PUSH2 0x9BB JUMPI PUSH1 0x0 DUP1 REVERT JUMPDEST PUSH1 0x0 SLOAD PUSH1 0x1 PUSH1 0x1 PUSH1 0xA0 SHL SUB AND CALLER EQ PUSH2 0xC24 JUMPI PUSH1 0x40 MLOAD PUSH3 0x461BCD PUSH1 0xE5 SHL DUP2 MSTORE PUSH1 0x4 ADD PUSH2 0x5D5 SWAP1 PUSH2 0x1406 JUMP JUMPDEST PUSH1 0x0 DUP1 SLOAD PUSH1 0xFF PUSH1 0xA0 SHL NOT AND SWAP1 SSTORE JUMP JUMPDEST PUSH1 0x0 SLOAD PUSH1 0x1 PUSH1 0xA0 SHL SWAP1 DIV PUSH1 0xFF AND ISZERO ISZERO PUSH1 0x1 EQ PUSH2 0xC61 JUMPI PUSH1 0x40 MLOAD PUSH3 0x461BCD PUSH1 0xE5 SHL DUP2 MSTORE PUSH1 0x4 ADD PUSH2 0x5D5 SWAP1 PUSH2 0x143B JUMP JUMPDEST PUSH1 0x0 DUP2 GT PUSH2 0xCC8 JUMPI PUSH1 0x40 MLOAD PUSH3 0x461BCD PUSH1 0xE5 SHL DUP2 MSTORE PUSH1 0x20 PUSH1 0x4 DUP3 ADD MSTORE PUSH1 0x2E PUSH1 0x24 DUP3 ADD MSTORE PUSH32 0x416D6F756E7420746F206265207374616B6564206E6565647320746F20626520 PUSH1 0x44 DUP3 ADD MSTORE PUSH14 0x67726561746572207468616E203 PUSH1 0x94 SHL PUSH1 0x64 DUP3 ADD MSTORE PUSH1 0x84 ADD PUSH2 0x5D5 JUMP JUMPDEST PUSH1 0xB SLOAD PUSH1 0x40 MLOAD PUSH4 0x70A08231 PUSH1 0xE0 SHL DUP2 MSTORE CALLER PUSH1 0x4 DUP3 ADD MSTORE PUSH1 0x1 PUSH1 0x1 PUSH1 0xA0 SHL SUB SWAP1 SWAP2 AND SWAP1 PUSH4 0x70A08231 SWAP1 PUSH1 0x24 ADD PUSH1 0x20 PUSH1 0x40 MLOAD DUP1 DUP4 SUB DUP2 DUP7 GAS STATICCALL ISZERO DUP1 ISZERO PUSH2 0xD10 JUMPI RETURNDATASIZE PUSH1 0x0 DUP1 RETURNDATACOPY RETURNDATASIZE PUSH1 0x0 REVERT JUMPDEST POP POP POP POP PUSH1 0x40 MLOAD RETURNDATASIZE PUSH1 0x1F NOT PUSH1 0x1F DUP3 ADD AND DUP3 ADD DUP1 PUSH1 0x40 MSTORE POP DUP2 ADD SWAP1 PUSH2 0xD34 SWAP2 SWAP1 PUSH2 0x15F2 JUMP JUMPDEST DUP2 GT ISZERO PUSH2 0xD83 JUMPI PUSH1 0x40 MLOAD PUSH3 0x461BCD PUSH1 0xE5 SHL DUP2 MSTORE PUSH1 0x20 PUSH1 0x4 DUP3 ADD MSTORE PUSH1 0x1E PUSH1 0x24 DUP3 ADD MSTORE PUSH32 0x43616E2774207374616B65206D6F7265207468616E20796F7520686176650000 PUSH1 0x44 DUP3 ADD MSTORE PUSH1 0x64 ADD PUSH2 0x5D5 JUMP JUMPDEST CALLER PUSH1 0x0 SWAP1 DUP2 MSTORE PUSH1 0x4 PUSH1 0x20 SWAP1 DUP2 MSTORE PUSH1 0x40 SWAP2 DUP3 SWAP1 KECCAK256 DUP3 MLOAD PUSH1 0x60 DUP1 DUP3 ADD DUP6 MSTORE DUP3 SLOAD DUP3 MSTORE PUSH1 0x1 DUP4 ADD SLOAD SWAP4 DUP3 ADD SWAP4 SWAP1 SWAP4 MSTORE PUSH1 0x2 SWAP1 SWAP2 ADD SLOAD DUP2 DUP5 ADD MSTORE DUP3 MLOAD SWAP2 DUP3 ADD SWAP1 SWAP3 MSTORE DUP2 MLOAD DUP2 SWAP1 PUSH2 0xDD0 SWAP1 DUP6 SWAP1 PUSH2 0x160B JUMP JUMPDEST DUP2 MSTORE PUSH1 0x20 ADD DUP4 DUP4 PUSH1 0x20 ADD MLOAD PUSH2 0xDE5 SWAP2 SWAP1 PUSH2 0x160B JUMP JUMPDEST DUP2 MSTORE TIMESTAMP PUSH1 0x20 SWAP2 DUP3 ADD MSTORE CALLER PUSH1 0x0 DUP2 DUP2 MSTORE PUSH1 0x4 DUP1 DUP5 MSTORE PUSH1 0x40 SWAP2 DUP3 SWAP1 KECCAK256 DUP6 MLOAD DUP2 SSTORE SWAP4 DUP6 ADD MLOAD PUSH1 0x1 DUP6 ADD SSTORE DUP5 DUP3 ADD MLOAD PUSH1 0x2 SWAP1 SWAP5 ADD SWAP4 SWAP1 SWAP4 SSTORE PUSH1 0xB SLOAD SWAP1 MLOAD PUSH4 0x2770A7EB PUSH1 0xE2 SHL DUP2 MSTORE SWAP3 DUP4 ADD SWAP2 SWAP1 SWAP2 MSTORE PUSH1 0x24 DUP3 ADD DUP6 SWAP1 MSTORE SWAP2 SWAP3 POP PUSH1 0x1 PUSH1 0x1 PUSH1 0xA0 SHL SUB SWAP1 SWAP2 AND SWAP1 PUSH4 0x9DC29FAC SWAP1 PUSH1 0x44 ADD PUSH1 0x0 PUSH1 0x40 MLOAD DUP1 DUP4 SUB DUP2 PUSH1 0x0 DUP8 DUP1 EXTCODESIZE ISZERO DUP1 ISZERO PUSH2 0xE68 JUMPI PUSH1 0x0 DUP1 REVERT JUMPDEST POP GAS CALL ISZERO DUP1 ISZERO PUSH2 0xE7C JUMPI RETURNDATASIZE PUSH1 0x0 DUP1 RETURNDATACOPY RETURNDATASIZE PUSH1 0x0 REVERT JUMPDEST POP POP POP POP POP POP JUMP JUMPDEST PUSH1 0xC SLOAD PUSH1 0x1 PUSH1 0x1 PUSH1 0xA0 SHL SUB DUP3 AND PUSH1 0x0 SWAP1 DUP2 MSTORE PUSH1 0x4 PUSH1 0x20 MSTORE PUSH1 0x40 DUP2 KECCAK256 PUSH1 0x2 ADD SLOAD SWAP1 SWAP2 SWAP1 PUSH2 0xEB0 SWAP1 TIMESTAMP PUSH2 0x1495 JUMP JUMPDEST GT PUSH2 0xEE8 JUMPI PUSH1 0x1 PUSH1 0x1 PUSH1 0xA0 SHL SUB DUP3 AND PUSH1 0x0 SWAP1 DUP2 MSTORE PUSH1 0x4 PUSH1 0x20 MSTORE PUSH1 0x40 SWAP1 KECCAK256 PUSH1 0x2 ADD SLOAD PUSH2 0xEDB SWAP1 TIMESTAMP PUSH2 0x1495 JUMP JUMPDEST PUSH1 0xC SLOAD PUSH2 0xBB0 SWAP2 SWAP1 PUSH2 0x1495 JUMP JUMPDEST POP PUSH1 0x0 SWAP2 SWAP1 POP JUMP JUMPDEST PUSH1 0x0 SLOAD PUSH1 0x1 PUSH1 0x1 PUSH1 0xA0 SHL SUB AND CALLER EQ PUSH2 0xF1A JUMPI PUSH1 0x40 MLOAD PUSH3 0x461BCD PUSH1 0xE5 SHL DUP2 MSTORE PUSH1 0x4 ADD PUSH2 0x5D5 SWAP1 PUSH2 0x1406 JUMP JUMPDEST PUSH1 0x0 DUP1 SLOAD PUSH1 0xFF PUSH1 0xA0 SHL NOT AND PUSH1 0x1 PUSH1 0xA0 SHL OR SWAP1 SSTORE JUMP JUMPDEST PUSH1 0x0 SLOAD PUSH1 0x1 PUSH1 0x1 PUSH1 0xA0 SHL SUB AND CALLER EQ PUSH2 0xF59 JUMPI PUSH1 0x40 MLOAD PUSH3 0x461BCD PUSH1 0xE5 SHL DUP2 MSTORE PUSH1 0x4 ADD PUSH2 0x5D5 SWAP1 PUSH2 0x1406 JUMP JUMPDEST PUSH1 0x1 PUSH1 0x1 PUSH1 0xA0 SHL SUB DUP2 AND PUSH2 0xFBE JUMPI PUSH1 0x40 MLOAD PUSH3 0x461BCD PUSH1 0xE5 SHL DUP2 MSTORE PUSH1 0x20 PUSH1 0x4 DUP3 ADD MSTORE PUSH1 0x26 PUSH1 0x24 DUP3 ADD MSTORE PUSH32 0x4F776E61626C653A206E6577206F776E657220697320746865207A65726F2061 PUSH1 0x44 DUP3 ADD MSTORE PUSH6 0x646472657373 PUSH1 0xD0 SHL PUSH1 0x64 DUP3 ADD MSTORE PUSH1 0x84 ADD PUSH2 0x5D5 JUMP JUMPDEST PUSH2 0xFC7 DUP2 PUSH2 0x1287 JUMP JUMPDEST POP JUMP JUMPDEST PUSH1 0xC SLOAD CALLER PUSH1 0x0 SWAP1 DUP2 MSTORE PUSH1 0x4 PUSH1 0x20 MSTORE PUSH1 0x40 SWAP1 KECCAK256 PUSH1 0x2 ADD SLOAD PUSH2 0xFEA SWAP1 TIMESTAMP PUSH2 0x1495 JUMP JUMPDEST LT ISZERO PUSH2 0x1008 JUMPI PUSH1 0x40 MLOAD PUSH3 0x461BCD PUSH1 0xE5 SHL DUP2 MSTORE PUSH1 0x4 ADD PUSH2 0x5D5 SWAP1 PUSH2 0x1503 JUMP JUMPDEST PUSH1 0x0 SLOAD PUSH1 0x1 PUSH1 0xA0 SHL SWAP1 DIV PUSH1 0xFF AND ISZERO ISZERO PUSH1 0x1 EQ PUSH2 0x1036 JUMPI PUSH1 0x40 MLOAD PUSH3 0x461BCD PUSH1 0xE5 SHL DUP2 MSTORE PUSH1 0x4 ADD PUSH2 0x5D5 SWAP1 PUSH2 0x143B JUMP JUMPDEST CALLER PUSH1 0x0 SWAP1 DUP2 MSTORE PUSH1 0x4 PUSH1 0x20 MSTORE PUSH1 0x40 DUP2 KECCAK256 SLOAD SWAP1 JUMPDEST PUSH1 0x3 DUP2 LT ISZERO PUSH2 0x10CC JUMPI PUSH1 0x0 PUSH1 0x5 DUP3 PUSH1 0x3 DUP2 LT PUSH2 0x1066 JUMPI PUSH2 0x1066 PUSH2 0x14ED JUMP JUMPDEST ADD SLOAD PUSH1 0x0 DUP2 DUP2 MSTORE PUSH1 0x1 PUSH1 0x20 MSTORE PUSH1 0x40 SWAP1 KECCAK256 SLOAD SWAP1 SWAP2 POP PUSH2 0x1085 SWAP1 CALLER SWAP1 PUSH2 0x12D7 JUMP JUMPDEST ISZERO PUSH2 0x10B9 JUMPI PUSH1 0xE SLOAD PUSH2 0x1098 SWAP1 PUSH1 0x64 PUSH2 0x1623 JUMP JUMPDEST PUSH2 0x10A2 DUP3 DUP6 PUSH2 0x1623 JUMP JUMPDEST PUSH2 0x10AC SWAP2 SWAP1 PUSH2 0x1658 JUMP JUMPDEST PUSH2 0x10B6 SWAP1 DUP5 PUSH2 0x160B JUMP JUMPDEST SWAP3 POP JUMPDEST POP DUP1 PUSH2 0x10C4 DUP2 PUSH2 0x166C JUMP JUMPDEST SWAP2 POP POP PUSH2 0x1048 JUMP JUMPDEST POP PUSH1 0x0 JUMPDEST PUSH1 0x3 DUP2 LT ISZERO PUSH2 0x11DF JUMPI PUSH1 0x0 PUSH1 0x8 DUP3 PUSH1 0x3 DUP2 LT PUSH2 0x10EE JUMPI PUSH2 0x10EE PUSH2 0x14ED JUMP JUMPDEST ADD SLOAD PUSH1 0x0 DUP2 DUP2 MSTORE PUSH1 0x2 PUSH1 0x20 MSTORE PUSH1 0x40 SWAP1 KECCAK256 SLOAD SWAP1 SWAP2 POP PUSH2 0x110D SWAP1 CALLER SWAP1 PUSH2 0x12D7 JUMP JUMPDEST ISZERO PUSH2 0x11CC JUMPI PUSH1 0x0 PUSH1 0xE SLOAD PUSH1 0x64 PUSH2 0x1123 SWAP2 SWAP1 PUSH2 0x1623 JUMP JUMPDEST PUSH2 0x112D DUP4 DUP7 PUSH2 0x1623 JUMP JUMPDEST PUSH2 0x1137 SWAP2 SWAP1 PUSH2 0x1658 JUMP JUMPDEST PUSH1 0xB SLOAD PUSH1 0x3 SLOAD SWAP2 SWAP3 POP PUSH1 0x1 PUSH1 0x1 PUSH1 0xA0 SHL SUB SWAP1 DUP2 AND SWAP2 PUSH4 0x40C10F19 SWAP2 AND PUSH2 0x115E PUSH1 0xA DUP6 PUSH2 0x1658 JUMP JUMPDEST PUSH1 0x40 MLOAD PUSH1 0x1 PUSH1 0x1 PUSH1 0xE0 SHL SUB NOT PUSH1 0xE0 DUP6 SWAP1 SHL AND DUP2 MSTORE PUSH1 0x1 PUSH1 0x1 PUSH1 0xA0 SHL SUB SWAP1 SWAP3 AND PUSH1 0x4 DUP4 ADD MSTORE PUSH1 0x24 DUP3 ADD MSTORE PUSH1 0x44 ADD PUSH1 0x0 PUSH1 0x40 MLOAD DUP1 DUP4 SUB DUP2 PUSH1 0x0 DUP8 DUP1 EXTCODESIZE ISZERO DUP1 ISZERO PUSH2 0x11A4 JUMPI PUSH1 0x0 DUP1 REVERT JUMPDEST POP GAS CALL ISZERO DUP1 ISZERO PUSH2 0x11B8 JUMPI RETURNDATASIZE PUSH1 0x0 DUP1 RETURNDATACOPY RETURNDATASIZE PUSH1 0x0 REVERT JUMPDEST POP POP POP POP DUP1 DUP5 PUSH2 0x11C8 SWAP2 SWAP1 PUSH2 0x1495 JUMP JUMPDEST SWAP4 POP POP JUMPDEST POP DUP1 PUSH2 0x11D7 DUP2 PUSH2 0x166C JUMP JUMPDEST SWAP2 POP POP PUSH2 0x10D0 JUMP JUMPDEST POP CALLER PUSH1 0x0 SWAP1 DUP2 MSTORE PUSH1 0x4 PUSH1 0x20 MSTORE PUSH1 0x40 DUP2 KECCAK256 DUP3 DUP2 SSTORE TIMESTAMP PUSH1 0x2 DUP3 ADD SSTORE PUSH1 0x1 ADD SLOAD PUSH2 0x1206 SWAP1 DUP4 PUSH2 0x1685 JUMP JUMPDEST SWAP1 POP PUSH1 0x0 DUP2 SLT PUSH2 0x124A JUMPI PUSH1 0x40 DUP1 MLOAD CALLER DUP2 MSTORE PUSH1 0x20 DUP2 ADD DUP4 SWAP1 MSTORE PUSH32 0x848C68EF6385D4B4A906CB326EA769C674A72BD79A4F9B2D494A91B50DD433CC SWAP2 ADD PUSH1 0x40 MLOAD DUP1 SWAP2 SUB SWAP1 LOG1 JUMPDEST PUSH1 0x40 DUP1 MLOAD CALLER DUP2 MSTORE PUSH1 0x20 DUP2 ADD DUP4 SWAP1 MSTORE PUSH32 0x453949BD7CA7338A4CF587C83BC69CEB779D96B0315E71C0F8F24E02480C6ED3 SWAP2 ADD PUSH1 0x40 MLOAD DUP1 SWAP2 SUB SWAP1 LOG1 POP POP JUMP JUMPDEST PUSH1 0x0 DUP1 SLOAD PUSH1 0x1 PUSH1 0x1 PUSH1 0xA0 SHL SUB DUP4 DUP2 AND PUSH1 0x1 PUSH1 0x1 PUSH1 0xA0 SHL SUB NOT DUP4 AND DUP2 OR DUP5 SSTORE PUSH1 0x40 MLOAD SWAP2 SWAP1 SWAP3 AND SWAP3 DUP4 SWAP2 PUSH32 0x8BE0079C531659141344CD1FD0A4F28419497F9722A3DAAFE3B4186F6B6457E0 SWAP2 SWAP1 LOG3 POP POP JUMP JUMPDEST PUSH1 0x0 PUSH1 0x2 PUSH1 0xD PUSH1 0x0 DUP3 DUP3 SLOAD PUSH2 0x12EC SWAP2 SWAP1 PUSH2 0x160B JUMP JUMPDEST SWAP1 SWAP2 SSTORE POP POP PUSH1 0xE SLOAD PUSH1 0x0 SWAP1 PUSH2 0x1302 SWAP1 PUSH1 0x64 PUSH2 0x1623 JUMP JUMPDEST PUSH1 0xD SLOAD PUSH1 0x40 DUP1 MLOAD TIMESTAMP PUSH1 0x20 DUP3 ADD MSTORE PUSH12 0xFFFFFFFFFFFFFFFFFFFFFFFF NOT PUSH1 0x60 DUP10 SWAP1 SHL AND SWAP2 DUP2 ADD SWAP2 SWAP1 SWAP2 MSTORE PUSH1 0x54 DUP2 ADD SWAP2 SWAP1 SWAP2 MSTORE PUSH1 0x74 ADD PUSH1 0x40 MLOAD PUSH1 0x20 DUP2 DUP4 SUB SUB DUP2 MSTORE SWAP1 PUSH1 0x40 MSTORE DUP1 MLOAD SWAP1 PUSH1 0x20 ADD KECCAK256 PUSH1 0x0 SHR PUSH2 0x1358 SWAP2 SWAP1 PUSH2 0x16C4 JUMP JUMPDEST PUSH1 0xF DUP2 SWAP1 SSTORE SWAP1 POP DUP3 DUP2 GT PUSH2 0x1370 JUMPI PUSH1 0x1 SWAP2 POP POP PUSH2 0xBB0 JUMP JUMPDEST POP PUSH1 0x0 SWAP4 SWAP3 POP POP POP JUMP JUMPDEST PUSH1 0x0 PUSH1 0x20 DUP3 DUP5 SUB SLT ISZERO PUSH2 0x138C JUMPI PUSH1 0x0 DUP1 REVERT JUMPDEST DUP2 CALLDATALOAD PUSH1 0x1 PUSH1 0x1 PUSH1 0xA0 SHL SUB DUP2 AND DUP2 EQ PUSH2 0x13A3 JUMPI PUSH1 0x0 DUP1 REVERT JUMPDEST SWAP4 SWAP3 POP POP POP JUMP JUMPDEST PUSH1 0x0 PUSH1 0x20 DUP3 DUP5 SUB SLT ISZERO PUSH2 0x13BC JUMPI PUSH1 0x0 DUP1 REVERT JUMPDEST POP CALLDATALOAD SWAP2 SWAP1 POP JUMP JUMPDEST PUSH1 0x0 DUP1 PUSH1 0x0 DUP1 PUSH1 0x0 DUP1 PUSH1 0xC0 DUP8 DUP10 SUB SLT ISZERO PUSH2 0x13DC JUMPI PUSH1 0x0 DUP1 REVERT JUMPDEST POP POP DUP5 CALLDATALOAD SWAP7 PUSH1 0x20 DUP7 ADD CALLDATALOAD SWAP7 POP PUSH1 0x40 DUP7 ADD CALLDATALOAD SWAP6 PUSH1 0x60 DUP2 ADD CALLDATALOAD SWAP6 POP PUSH1 0x80 DUP2 ADD CALLDATALOAD SWAP5 POP PUSH1 0xA0 ADD CALLDATALOAD SWAP3 POP SWAP1 POP JUMP JUMPDEST PUSH1 0x20 DUP1 DUP3 MSTORE DUP2 DUP2 ADD MSTORE PUSH32 0x4F776E61626C653A2063616C6C6572206973206E6F7420746865206F776E6572 PUSH1 0x40 DUP3 ADD MSTORE PUSH1 0x60 ADD SWAP1 JUMP JUMPDEST PUSH1 0x20 DUP1 DUP3 MSTORE PUSH1 0x24 SWAP1 DUP3 ADD MSTORE PUSH32 0x5374616B696E67206973206E6F7420616C6C6F77656420617420746865206D6F PUSH1 0x40 DUP3 ADD MSTORE PUSH4 0x1B595B9D PUSH1 0xE2 SHL PUSH1 0x60 DUP3 ADD MSTORE PUSH1 0x80 ADD SWAP1 JUMP JUMPDEST PUSH4 0x4E487B71 PUSH1 0xE0 SHL PUSH1 0x0 MSTORE PUSH1 0x11 PUSH1 0x4 MSTORE PUSH1 0x24 PUSH1 0x0 REVERT JUMPDEST PUSH1 0x0 DUP3 DUP3 LT ISZERO PUSH2 0x14A7 JUMPI PUSH2 0x14A7 PUSH2 0x147F JUMP JUMPDEST POP SUB SWAP1 JUMP JUMPDEST PUSH1 0x20 DUP1 DUP3 MSTORE PUSH1 0x21 SWAP1 DUP3 ADD MSTORE PUSH32 0x506F73697469766573204C696B656C686F6F64732063616E2774206265203C20 PUSH1 0x40 DUP3 ADD MSTORE PUSH1 0x3 PUSH1 0xFC SHL PUSH1 0x60 DUP3 ADD MSTORE PUSH1 0x80 ADD SWAP1 JUMP JUMPDEST PUSH4 0x4E487B71 PUSH1 0xE0 SHL PUSH1 0x0 MSTORE PUSH1 0x32 PUSH1 0x4 MSTORE PUSH1 0x24 PUSH1 0x0 REVERT JUMPDEST PUSH1 0x20 DUP1 DUP3 MSTORE PUSH1 0x3C SWAP1 DUP3 ADD MSTORE PUSH32 0x596F75206861766520746F2077616974206C6F6E67657220746F206265206162 PUSH1 0x40 DUP3 ADD MSTORE PUSH32 0x6C6520746F20436C61696D2F5265696E766573742F556E7374616B6500000000 PUSH1 0x60 DUP3 ADD MSTORE PUSH1 0x80 ADD SWAP1 JUMP JUMPDEST PUSH1 0x20 DUP1 DUP3 MSTORE PUSH1 0x3B SWAP1 DUP3 ADD MSTORE PUSH32 0x4E65676174697665204F7574636F6D65732063616E2774206265206E65656420 PUSH1 0x40 DUP3 ADD MSTORE PUSH32 0x746F20626520736574206120706F7374697665206E756D626572730000000000 PUSH1 0x60 DUP3 ADD MSTORE PUSH1 0x80 ADD SWAP1 JUMP JUMPDEST PUSH1 0x20 DUP1 DUP3 MSTORE DUP2 DUP2 ADD MSTORE PUSH32 0x4E65676174697665204C696B656C686F6F64732063616E2774206265203C2030 PUSH1 0x40 DUP3 ADD MSTORE PUSH1 0x60 ADD SWAP1 JUMP JUMPDEST PUSH1 0x0 PUSH1 0x20 DUP3 DUP5 SUB SLT ISZERO PUSH2 0x1604 JUMPI PUSH1 0x0 DUP1 REVERT JUMPDEST POP MLOAD SWAP2 SWAP1 POP JUMP JUMPDEST PUSH1 0x0 DUP3 NOT DUP3 GT ISZERO PUSH2 0x161E JUMPI PUSH2 0x161E PUSH2 0x147F JUMP JUMPDEST POP ADD SWAP1 JUMP JUMPDEST PUSH1 0x0 DUP2 PUSH1 0x0 NOT DIV DUP4 GT DUP3 ISZERO ISZERO AND ISZERO PUSH2 0x163D JUMPI PUSH2 0x163D PUSH2 0x147F JUMP JUMPDEST POP MUL SWAP1 JUMP JUMPDEST PUSH4 0x4E487B71 PUSH1 0xE0 SHL PUSH1 0x0 MSTORE PUSH1 0x12 PUSH1 0x4 MSTORE PUSH1 0x24 PUSH1 0x0 REVERT JUMPDEST PUSH1 0x0 DUP3 PUSH2 0x1667 JUMPI PUSH2 0x1667 PUSH2 0x1642 JUMP JUMPDEST POP DIV SWAP1 JUMP JUMPDEST PUSH1 0x0 PUSH1 0x1 DUP3 ADD PUSH2 0x167E JUMPI PUSH2 0x167E PUSH2 0x147F JUMP JUMPDEST POP PUSH1 0x1 ADD SWAP1 JUMP JUMPDEST PUSH1 0x0 DUP1 DUP4 SLT DUP1 ISZERO PUSH1 0x1 PUSH1 0xFF SHL DUP6 ADD DUP5 SLT AND ISZERO PUSH2 0x16A3 JUMPI PUSH2 0x16A3 PUSH2 0x147F JUMP JUMPDEST PUSH1 0x1 PUSH1 0x1 PUSH1 0xFF SHL SUB DUP5 ADD DUP4 SGT DUP2 AND ISZERO PUSH2 0x16BE JUMPI PUSH2 0x16BE PUSH2 0x147F JUMP JUMPDEST POP POP SUB SWAP1 JUMP JUMPDEST PUSH1 0x0 DUP3 PUSH2 0x16D3 JUMPI PUSH2 0x16D3 PUSH2 0x1642 JUMP JUMPDEST POP MOD SWAP1 JUMP INVALID LOG2 PUSH5 0x6970667358 0x22 SLT KECCAK256 0x5D 0xE DUP2 REVERT DUP7 CALLCODE 0xA8 0x5E 0xE5 ADD SWAP3 DUP1 CREATE RETURNDATASIZE ORIGIN DUP10 SMOD 0xBD 0xEB PUSH29 0xEB9852B81CC9322A96DE6D3C64736F6C634300080D0033000000000000 ","sha1":"48a3862db14c251958e667a92bc9d4594b272086","source":"// SPDX-License-Identifier: MIT\n\npragma solidity ^0.8.0;\n\nimport \"@openzeppelin/contracts/token/ERC20/IERC20.sol\";\nimport \"@openzeppelin/contracts/access/Ownable.sol\";\nimport \"./StakeToken.sol\";\n\ncontract RiskFarm is Ownable {\n    bool public riskAllowed;\n    mapping(uint256 => uint256) public positiveYieldToChance;\n    mapping(uint256 => uint256) public negativeYieldToChance;\n    address public team;\n\n    struct User {\n        uint256 amountStaked;\n        uint256 previousBalance;\n        uint256 startDate;\n    }\n\n    mapping(address => User) public users;\n    //in wei\n    uint256[3] public positives;\n    uint256[3] public negatives;\n\n    StakeToken public stakeToken;\n    uint256 public timeGap;\n    uint256 private nonce = 13;\n    uint256 public decimals = 10**4; // We just need to remember to multiply be decimals to get back the right answer\n    uint256 public randomNumber; // We just need to remember to multiply be decimals to get back the right answer\n    event Received(address, uint256);\n    event LostMoney(address, int256);\n    event GainedMoney(address, int256);\n\n    modifier riskingAllowed() {\n        require(riskAllowed == true, \"Staking is not allowed at the moment\");\n        _;\n    }\n    modifier isClaimable() {\n        require(\n            block.timestamp - users[msg.sender].startDate >= timeGap,\n            \"You have to wait longer to be able to Claim/Reinvest/Unstake\"\n        );\n        _;\n    }\n\n    constructor(address _stakeToken) public payable {\n        stakeToken = StakeToken(_stakeToken);\n\n        setPositives(\n            1 * decimals,\n            50 * decimals, // 50% chance of gaining 1%\n            10 * decimals,\n            10 * decimals, // 10% chance of gaining 10%\n            100 * decimals,\n            1 * decimals // 1% chance of gaining 100%\n        );\n\n        setNegatives(\n            10 * decimals,\n            5 * decimals, // 5% chance of gaining 10%\n            30 * decimals,\n            1 * decimals, // 1% chance of gaining 30%\n            90 * decimals,\n            1 * (decimals / 10) // 0.1% chance of gaining 100% ... /10 in this instance makes it equal to 0.1%\n        );\n        timeGap = 1 * (60 * 60 * 24); // days is the first part\n        riskAllowed = false;\n    }\n\n    function stake(uint256 _amount) public riskingAllowed {\n        require(_amount > 0, \"Amount to be staked needs to be greater than 0\");\n        require(\n            _amount <= stakeToken.balanceOf(msg.sender),\n            \"Can't stake more than you have\"\n        );\n        User memory user = users[msg.sender];\n        user = User(\n            user.amountStaked + _amount,\n            user.previousBalance + _amount,\n            block.timestamp\n        );\n        users[msg.sender] = user;\n        stakeToken.burn(msg.sender, _amount);\n    }\n\n    function unstake(uint256 _amount) public riskingAllowed {\n        require(\n            _amount > 0,\n            \"Amount to be unstaked needs to be greater than 0\"\n        );\n\n        //If the user unstakes before staking period is up, don't adjust values\n        if (canClaim()) {\n            claim();\n        }\n        User memory user = users[msg.sender];\n        uint256 stakeAmount = user.amountStaked;\n        require(\n            _amount <= user.amountStaked,\n            \"Can't unstake more than you have, check again\"\n        );\n\n        user.amountStaked -= _amount;\n        user.previousBalance = user.amountStaked;\n        stakeToken.mint(msg.sender, _amount);\n\n        //After Calculating the new balance, the amount you want to unstake is too much\n        //So we just reset the start date and allow you to unstake the amount you want again\n        //And when you unstake again, if its a partial amount then we do not change your start date\n        user.startDate = block.timestamp;\n        users[msg.sender] = user;\n    }\n\n    //Claim will be used to add or subtract to the amountStaked of the user\n    //the user then can seperately unstake after claiming\n    function claim() public isClaimable riskingAllowed {\n        calculateNewBalance();\n    }\n\n    function calculateNewBalance() internal isClaimable riskingAllowed {\n        uint256 balance = users[msg.sender].amountStaked;\n\n        //positives\n        for (uint256 i = 0; i < positives.length; i++) {\n            uint256 pValue = positives[i];\n            if (isReward(msg.sender, positiveYieldToChance[pValue])) {\n                balance += (balance * pValue) / (decimals * 100);\n            }\n        }\n        //negatives\n        for (uint256 i = 0; i < negatives.length; i++) {\n            uint256 nValue = negatives[i];\n            if (isReward(msg.sender, negativeYieldToChance[nValue])) {\n                uint256 value = (balance * nValue) / (decimals * 100);\n                //they lose money and the protocol gets 10% for marketing/expenses\n                stakeToken.mint(team, value / 10);\n                balance -= value;\n            }\n        }\n\n        users[msg.sender].amountStaked = balance;\n        users[msg.sender].startDate = block.timestamp;\n\n        int256 changeOfBalance = int256(balance) -\n            int256(users[msg.sender].previousBalance);\n\n        if (changeOfBalance >= 0) {\n            emit GainedMoney(msg.sender, changeOfBalance);\n        }\n        emit LostMoney(msg.sender, changeOfBalance);\n    }\n\n    function isReward(address _user, uint256 _chance) internal returns (bool) {\n        nonce += 2;\n        uint256 random = (\n            uint256(\n                keccak256(\n                    abi.encodePacked(block.timestamp, address(_user), nonce)\n                )\n            )\n        ) % (decimals * 100); //the 100 accounts for 0-99%\n\n        randomNumber = random; //testing purposes\n\n        //Lets assume we have a 10% chance of getting the reward... random(with our decimals) returns a number\n        // between 0-999,999... 10%% = 10 *10**4 = 100,000, so if random is <100,000, then win\n\n        if (random <= _chance) {\n            return true;\n        }\n        return false;\n    }\n\n    //All values/chances will need to be given with such that it will be divided by 10**4 and recieve the percentage\n    // If we want a 10% chance, we would need to pass 10 *10**4\n    //We can't work with plain decimals, so we will account for this in our math\n    //The lowest we percent we will go is 0.1% which is 0.1 * 10**4\n    function setPositives(\n        uint256 _firstValue,\n        uint256 _firstChance,\n        uint256 _secondValue,\n        uint256 _secondChance,\n        uint256 _thirdValue,\n        uint256 _thirdChance\n    ) public onlyOwner {\n        require(_firstValue > 0, \"Positive Outcomes can't be < 0\");\n        require(_secondValue > 0, \"Positives Outcomes can't be < 0\");\n        require(_thirdValue > 0, \"Positives Outcomes can't be < 0\");\n        require(_firstChance > 0, \"Positives Likelhoods can't be < 0\");\n        require(_secondChance > 0, \"Positives Likelhoods can't be < 0\");\n        require(_thirdChance > 0, \"Positives Likelhoods can't be < 0\");\n\n        // positives = uint256[3]();\n\n        positives[0] = _firstValue;\n        positives[1] = _secondValue;\n        positives[2] = _thirdValue;\n\n        positiveYieldToChance[_firstValue] = _firstChance;\n        positiveYieldToChance[_secondValue] = _secondChance;\n        positiveYieldToChance[_thirdValue] = _thirdChance;\n    }\n\n    //All values/chances will need to be given with such that it will be divided by 10**4 and recieve the percentage\n    // If we want a 10% chance, we would need to pass 10 *10**4\n    //We can't work with plain decimals, so we will account for this in our math\n    //The lowest we percent we will go is 0.1% which is 0.1 * 10**4\n\n    //Inputs need to be postive!!!!!!!!!\n    function setNegatives(\n        uint256 _firstValue,\n        uint256 _firstChance,\n        uint256 _secondValue,\n        uint256 _secondChance,\n        uint256 _thirdValue,\n        uint256 _thirdChance\n    ) public onlyOwner {\n        require(\n            _firstValue > 0,\n            \"Negative Outcomes can't be need to be set a postive numbers\"\n        );\n        require(\n            _secondValue > 0,\n            \"Negative Outcomes can't be need to be set a postive numbers\"\n        );\n        require(\n            _thirdValue > 0,\n            \"Negative Outcomes can't be need to be set a postive numbers\"\n        );\n        require(_firstChance > 0, \"Negative Likelhoods can't be < 0\");\n        require(_secondChance > 0, \"Negative Likelhoods can't be < 0\");\n        require(_thirdChance > 0, \"Negative Likelhoods can't be < 0\");\n\n        // negatives = uint256[3]();\n        negatives[0] = _firstValue;\n        negatives[1] = _secondValue;\n        negatives[2] = _thirdValue;\n\n        negativeYieldToChance[_firstValue] = _firstChance;\n        negativeYieldToChance[_secondValue] = _secondChance;\n        negativeYieldToChance[_thirdValue] = _thirdChance;\n    }\n\n    function isStaker(address _user) public view returns (bool) {\n        return users[_user].amountStaked > 0 ? true : false;\n    }\n\n    function canClaim() public view returns (bool) {\n        if (block.timestamp - users[msg.sender].startDate >= timeGap) {\n            return true;\n        }\n\n        return false;\n    }\n\n    function getUserStakingBalance(address _user)\n        public\n        view\n        returns (uint256)\n    {\n        return users[_user].amountStaked;\n    }\n\n    function getUserPreviousStake(address _user) public view returns (uint256) {\n        return users[_user].previousBalance;\n    }\n\n    // function getDaysSinceStart(address _user) public view returns (uint256) {\n    //     return (getSecsSinceStart(_user) / 60 / 60 / 24);\n    // }\n\n    // function getSecsSinceStart(address _user) public view returns (uint256) {\n    //     if (block.timestamp < users[msg.sender].startDate) {\n    //         return users[msg.sender].startDate - block.timestamp;\n    //     }\n    //     return (block.timestamp - users[msg.sender].startDate);\n    // }\n\n    function getUserSecsUntilRebase(address _user)\n        public\n        view\n        returns (uint256)\n    {\n        //if the timegap hasnt been passed, then return the difference, elese return -1\n        if (block.timestamp - users[_user].startDate <= timeGap) {\n            return timeGap - (block.timestamp - users[_user].startDate);\n        }\n        return 0;\n    }\n\n    function setFarmOpen() public onlyOwner {\n        riskAllowed = true;\n    }\n\n    function setFarmClosed() public onlyOwner {\n        riskAllowed = false;\n    }\n\n    function setTeam(address _team) public onlyOwner {\n        team = _team;\n    }\n\n    receive() external payable {\n        emit Received(msg.sender, msg.value);\n    }\n}\n","sourcePath":"contracts/RiskFarm.sol","type":"contract","deployment":{"address":"0xc036Ace874B1f9b47f10ac671E07e28F83F00d21","chainid":"43113","blockHeight":11130686}}